{
  "_format": "hh-sol-artifact-1",
  "contractName": "Marketplace",
  "sourceName": "contracts/marketplace/Marketplace.sol",
  "abi": [
    {
      "inputs": [
        {
          "internalType": "address",
          "name": "_acceptedToken",
          "type": "address"
        },
        {
          "internalType": "address",
          "name": "_legacyNFTAddress",
          "type": "address"
        },
        {
          "internalType": "address",
          "name": "_owner",
          "type": "address"
        }
      ],
      "stateMutability": "nonpayable",
      "type": "constructor"
    },
    {
      "anonymous": false,
      "inputs": [
        {
          "indexed": false,
          "internalType": "bytes32",
          "name": "id",
          "type": "bytes32"
        },
        {
          "indexed": true,
          "internalType": "uint256",
          "name": "assetId",
          "type": "uint256"
        },
        {
          "indexed": true,
          "internalType": "address",
          "name": "seller",
          "type": "address"
        }
      ],
      "name": "AuctionCancelled",
      "type": "event"
    },
    {
      "anonymous": false,
      "inputs": [
        {
          "indexed": false,
          "internalType": "bytes32",
          "name": "id",
          "type": "bytes32"
        },
        {
          "indexed": true,
          "internalType": "uint256",
          "name": "assetId",
          "type": "uint256"
        },
        {
          "indexed": true,
          "internalType": "address",
          "name": "seller",
          "type": "address"
        },
        {
          "indexed": false,
          "internalType": "uint256",
          "name": "priceInWei",
          "type": "uint256"
        },
        {
          "indexed": false,
          "internalType": "uint256",
          "name": "expiresAt",
          "type": "uint256"
        }
      ],
      "name": "AuctionCreated",
      "type": "event"
    },
    {
      "anonymous": false,
      "inputs": [
        {
          "indexed": false,
          "internalType": "bytes32",
          "name": "id",
          "type": "bytes32"
        },
        {
          "indexed": true,
          "internalType": "uint256",
          "name": "assetId",
          "type": "uint256"
        },
        {
          "indexed": true,
          "internalType": "address",
          "name": "seller",
          "type": "address"
        },
        {
          "indexed": false,
          "internalType": "uint256",
          "name": "totalPrice",
          "type": "uint256"
        },
        {
          "indexed": true,
          "internalType": "address",
          "name": "winner",
          "type": "address"
        }
      ],
      "name": "AuctionSuccessful",
      "type": "event"
    },
    {
      "anonymous": false,
      "inputs": [
        {
          "indexed": true,
          "internalType": "address",
          "name": "legacyNFTAddress",
          "type": "address"
        }
      ],
      "name": "ChangeLegacyNFTAddress",
      "type": "event"
    },
    {
      "anonymous": false,
      "inputs": [
        {
          "indexed": false,
          "internalType": "uint256",
          "name": "ownerCutPerMillion",
          "type": "uint256"
        }
      ],
      "name": "ChangedOwnerCutPerMillion",
      "type": "event"
    },
    {
      "anonymous": false,
      "inputs": [
        {
          "indexed": false,
          "internalType": "uint256",
          "name": "publicationFee",
          "type": "uint256"
        }
      ],
      "name": "ChangedPublicationFee",
      "type": "event"
    },
    {
      "anonymous": false,
      "inputs": [
        {
          "indexed": false,
          "internalType": "address",
          "name": "userAddress",
          "type": "address"
        },
        {
          "indexed": false,
          "internalType": "address",
          "name": "relayerAddress",
          "type": "address"
        },
        {
          "indexed": false,
          "internalType": "bytes",
          "name": "functionSignature",
          "type": "bytes"
        }
      ],
      "name": "MetaTransactionExecuted",
      "type": "event"
    },
    {
      "anonymous": false,
      "inputs": [
        {
          "indexed": false,
          "internalType": "bytes32",
          "name": "id",
          "type": "bytes32"
        },
        {
          "indexed": true,
          "internalType": "uint256",
          "name": "assetId",
          "type": "uint256"
        },
        {
          "indexed": true,
          "internalType": "address",
          "name": "seller",
          "type": "address"
        },
        {
          "indexed": false,
          "internalType": "address",
          "name": "nftAddress",
          "type": "address"
        }
      ],
      "name": "OrderCancelled",
      "type": "event"
    },
    {
      "anonymous": false,
      "inputs": [
        {
          "indexed": false,
          "internalType": "bytes32",
          "name": "id",
          "type": "bytes32"
        },
        {
          "indexed": true,
          "internalType": "uint256",
          "name": "assetId",
          "type": "uint256"
        },
        {
          "indexed": true,
          "internalType": "address",
          "name": "seller",
          "type": "address"
        },
        {
          "indexed": false,
          "internalType": "address",
          "name": "nftAddress",
          "type": "address"
        },
        {
          "indexed": false,
          "internalType": "uint256",
          "name": "priceInWei",
          "type": "uint256"
        },
        {
          "indexed": false,
          "internalType": "uint256",
          "name": "expiresAt",
          "type": "uint256"
        }
      ],
      "name": "OrderCreated",
      "type": "event"
    },
    {
      "anonymous": false,
      "inputs": [
        {
          "indexed": false,
          "internalType": "bytes32",
          "name": "id",
          "type": "bytes32"
        },
        {
          "indexed": true,
          "internalType": "uint256",
          "name": "assetId",
          "type": "uint256"
        },
        {
          "indexed": true,
          "internalType": "address",
          "name": "seller",
          "type": "address"
        },
        {
          "indexed": false,
          "internalType": "address",
          "name": "nftAddress",
          "type": "address"
        },
        {
          "indexed": false,
          "internalType": "uint256",
          "name": "totalPrice",
          "type": "uint256"
        },
        {
          "indexed": true,
          "internalType": "address",
          "name": "buyer",
          "type": "address"
        }
      ],
      "name": "OrderSuccessful",
      "type": "event"
    },
    {
      "anonymous": false,
      "inputs": [
        {
          "indexed": true,
          "internalType": "address",
          "name": "previousOwner",
          "type": "address"
        },
        {
          "indexed": true,
          "internalType": "address",
          "name": "newOwner",
          "type": "address"
        }
      ],
      "name": "OwnershipTransferred",
      "type": "event"
    },
    {
      "anonymous": false,
      "inputs": [
        {
          "indexed": false,
          "internalType": "address",
          "name": "account",
          "type": "address"
        }
      ],
      "name": "Paused",
      "type": "event"
    },
    {
      "anonymous": false,
      "inputs": [
        {
          "indexed": false,
          "internalType": "address",
          "name": "account",
          "type": "address"
        }
      ],
      "name": "Unpaused",
      "type": "event"
    },
    {
      "inputs": [],
      "name": "ERC721_Interface",
      "outputs": [
        {
          "internalType": "bytes4",
          "name": "",
          "type": "bytes4"
        }
      ],
      "stateMutability": "view",
      "type": "function"
    },
    {
      "inputs": [],
      "name": "InterfaceId_ValidateFingerprint",
      "outputs": [
        {
          "internalType": "bytes4",
          "name": "",
          "type": "bytes4"
        }
      ],
      "stateMutability": "view",
      "type": "function"
    },
    {
      "inputs": [],
      "name": "acceptedToken",
      "outputs": [
        {
          "internalType": "contract ERC20Interface",
          "name": "",
          "type": "address"
        }
      ],
      "stateMutability": "view",
      "type": "function"
    },
    {
      "inputs": [
        {
          "internalType": "uint256",
          "name": "assetId",
          "type": "uint256"
        }
      ],
      "name": "auctionByAssetId",
      "outputs": [
        {
          "internalType": "bytes32",
          "name": "",
          "type": "bytes32"
        },
        {
          "internalType": "address",
          "name": "",
          "type": "address"
        },
        {
          "internalType": "uint256",
          "name": "",
          "type": "uint256"
        },
        {
          "internalType": "uint256",
          "name": "",
          "type": "uint256"
        }
      ],
      "stateMutability": "view",
      "type": "function"
    },
    {
      "inputs": [
        {
          "internalType": "uint256",
          "name": "assetId",
          "type": "uint256"
        }
      ],
      "name": "cancelOrder",
      "outputs": [],
      "stateMutability": "nonpayable",
      "type": "function"
    },
    {
      "inputs": [
        {
          "internalType": "address",
          "name": "nftAddress",
          "type": "address"
        },
        {
          "internalType": "uint256",
          "name": "assetId",
          "type": "uint256"
        }
      ],
      "name": "cancelOrder",
      "outputs": [],
      "stateMutability": "nonpayable",
      "type": "function"
    },
    {
      "inputs": [
        {
          "internalType": "address",
          "name": "nftAddress",
          "type": "address"
        },
        {
          "internalType": "uint256",
          "name": "assetId",
          "type": "uint256"
        },
        {
          "internalType": "uint256",
          "name": "priceInWei",
          "type": "uint256"
        },
        {
          "internalType": "uint256",
          "name": "expiresAt",
          "type": "uint256"
        }
      ],
      "name": "createOrder",
      "outputs": [],
      "stateMutability": "nonpayable",
      "type": "function"
    },
    {
      "inputs": [
        {
          "internalType": "uint256",
          "name": "assetId",
          "type": "uint256"
        },
        {
          "internalType": "uint256",
          "name": "priceInWei",
          "type": "uint256"
        },
        {
          "internalType": "uint256",
          "name": "expiresAt",
          "type": "uint256"
        }
      ],
      "name": "createOrder",
      "outputs": [],
      "stateMutability": "nonpayable",
      "type": "function"
    },
    {
      "inputs": [],
      "name": "domainSeparator",
      "outputs": [
        {
          "internalType": "bytes32",
          "name": "",
          "type": "bytes32"
        }
      ],
      "stateMutability": "view",
      "type": "function"
    },
    {
      "inputs": [
        {
          "internalType": "address",
          "name": "userAddress",
          "type": "address"
        },
        {
          "internalType": "bytes",
          "name": "functionSignature",
          "type": "bytes"
        },
        {
          "internalType": "bytes32",
          "name": "sigR",
          "type": "bytes32"
        },
        {
          "internalType": "bytes32",
          "name": "sigS",
          "type": "bytes32"
        },
        {
          "internalType": "uint8",
          "name": "sigV",
          "type": "uint8"
        }
      ],
      "name": "executeMetaTransaction",
      "outputs": [
        {
          "internalType": "bytes",
          "name": "",
          "type": "bytes"
        }
      ],
      "stateMutability": "payable",
      "type": "function"
    },
    {
      "inputs": [
        {
          "internalType": "address",
          "name": "nftAddress",
          "type": "address"
        },
        {
          "internalType": "uint256",
          "name": "assetId",
          "type": "uint256"
        },
        {
          "internalType": "uint256",
          "name": "price",
          "type": "uint256"
        }
      ],
      "name": "executeOrder",
      "outputs": [],
      "stateMutability": "nonpayable",
      "type": "function"
    },
    {
      "inputs": [
        {
          "internalType": "uint256",
          "name": "assetId",
          "type": "uint256"
        },
        {
          "internalType": "uint256",
          "name": "price",
          "type": "uint256"
        }
      ],
      "name": "executeOrder",
      "outputs": [],
      "stateMutability": "nonpayable",
      "type": "function"
    },
    {
      "inputs": [],
      "name": "getChainId",
      "outputs": [
        {
          "internalType": "uint256",
          "name": "",
          "type": "uint256"
        }
      ],
      "stateMutability": "view",
      "type": "function"
    },
    {
      "inputs": [
        {
          "internalType": "address",
          "name": "user",
          "type": "address"
        }
      ],
      "name": "getNonce",
      "outputs": [
        {
          "internalType": "uint256",
          "name": "nonce",
          "type": "uint256"
        }
      ],
      "stateMutability": "view",
      "type": "function"
    },
    {
      "inputs": [],
      "name": "legacyNFTAddress",
      "outputs": [
        {
          "internalType": "address",
          "name": "",
          "type": "address"
        }
      ],
      "stateMutability": "view",
      "type": "function"
    },
    {
      "inputs": [
        {
          "internalType": "address",
          "name": "",
          "type": "address"
        },
        {
          "internalType": "uint256",
          "name": "",
          "type": "uint256"
        }
      ],
      "name": "orderByAssetId",
      "outputs": [
        {
          "internalType": "bytes32",
          "name": "id",
          "type": "bytes32"
        },
        {
          "internalType": "address",
          "name": "seller",
          "type": "address"
        },
        {
          "internalType": "address",
          "name": "nftAddress",
          "type": "address"
        },
        {
          "internalType": "uint256",
          "name": "price",
          "type": "uint256"
        },
        {
          "internalType": "uint256",
          "name": "expiresAt",
          "type": "uint256"
        }
      ],
      "stateMutability": "view",
      "type": "function"
    },
    {
      "inputs": [],
      "name": "owner",
      "outputs": [
        {
          "internalType": "address",
          "name": "",
          "type": "address"
        }
      ],
      "stateMutability": "view",
      "type": "function"
    },
    {
      "inputs": [],
      "name": "ownerCutPerMillion",
      "outputs": [
        {
          "internalType": "uint256",
          "name": "",
          "type": "uint256"
        }
      ],
      "stateMutability": "view",
      "type": "function"
    },
    {
      "inputs": [],
      "name": "paused",
      "outputs": [
        {
          "internalType": "bool",
          "name": "",
          "type": "bool"
        }
      ],
      "stateMutability": "view",
      "type": "function"
    },
    {
      "inputs": [],
      "name": "publicationFeeInWei",
      "outputs": [
        {
          "internalType": "uint256",
          "name": "",
          "type": "uint256"
        }
      ],
      "stateMutability": "view",
      "type": "function"
    },
    {
      "inputs": [],
      "name": "renounceOwnership",
      "outputs": [],
      "stateMutability": "nonpayable",
      "type": "function"
    },
    {
      "inputs": [
        {
          "internalType": "address",
          "name": "nftAddress",
          "type": "address"
        },
        {
          "internalType": "uint256",
          "name": "assetId",
          "type": "uint256"
        },
        {
          "internalType": "uint256",
          "name": "price",
          "type": "uint256"
        },
        {
          "internalType": "bytes",
          "name": "fingerprint",
          "type": "bytes"
        }
      ],
      "name": "safeExecuteOrder",
      "outputs": [],
      "stateMutability": "nonpayable",
      "type": "function"
    },
    {
      "inputs": [
        {
          "internalType": "address",
          "name": "_legacyNFTAddress",
          "type": "address"
        }
      ],
      "name": "setLegacyNFTAddress",
      "outputs": [],
      "stateMutability": "nonpayable",
      "type": "function"
    },
    {
      "inputs": [
        {
          "internalType": "uint256",
          "name": "_ownerCutPerMillion",
          "type": "uint256"
        }
      ],
      "name": "setOwnerCutPerMillion",
      "outputs": [],
      "stateMutability": "nonpayable",
      "type": "function"
    },
    {
      "inputs": [
        {
          "internalType": "uint256",
          "name": "_publicationFee",
          "type": "uint256"
        }
      ],
      "name": "setPublicationFee",
      "outputs": [],
      "stateMutability": "nonpayable",
      "type": "function"
    },
    {
      "inputs": [
        {
          "internalType": "address",
          "name": "newOwner",
          "type": "address"
        }
      ],
      "name": "transferOwnership",
      "outputs": [],
      "stateMutability": "nonpayable",
      "type": "function"
    }
  ],
  "bytecode": "0x60806040523480156200001157600080fd5b50604051620030a5380380620030a5833981810160405260608110156200003757600080fd5b5080516020820151604090920151909190600062000054620001f2565b600080546001600160a01b0319166001600160a01b03831690811782556040519293509160008051602062003061833981519152908290a3506000805460ff60a01b19169055604080518082018252601881527f446563656e7472616c616e64204d61726b6574706c6163650000000000000000602080830191909152825180840190935260018352603160f81b90830152620000f19162000251565b6001600160a01b0381166200013d576040805162461bcd60e51b815260206004820152600d60248201526c24b73b30b634b21037bbb732b960991b604482015290519081900360640190fd5b6200014881620002eb565b62000167836001600160a01b0316620003f560201b620013831760201c565b620001a45760405162461bcd60e51b815260040180806020018281038252603681526020018062002f816036913960400191505060405180910390fd5b600180546001600160a01b0319166001600160a01b038516179055620001ca82620003fb565b50600580546001600160a01b0319166001600160a01b0392909216919091179055506200052a565b6000333014156200024b57600080368080601f0160208091040260200160405190810160405280939291908181526020018383808284376000920191909152505050503601516001600160a01b031691506200024e9050565b50335b90565b6040518060800160405280604f815260200162002fdd604f9139805190602001208280519060200120828051906020012030620002936200051760201b60201c565b60001b60405160200180868152602001858152602001848152602001836001600160a01b0316815260200182815260200195505050505050604051602081830303815290604052805190602001206006819055505050565b620002f5620001f2565b6001600160a01b0316620003086200051b565b6001600160a01b03161462000364576040805162461bcd60e51b815260206004820181905260248201527f4f776e61626c653a2063616c6c6572206973206e6f7420746865206f776e6572604482015290519081900360640190fd5b6001600160a01b038116620003ab5760405162461bcd60e51b815260040180806020018281038252602681526020018062002fb76026913960400191505060405180910390fd5b600080546040516001600160a01b03808516939216916000805160206200306183398151915291a3600080546001600160a01b0319166001600160a01b0392909216919091179055565b3b151590565b6200041a816001600160a01b0316620003f560201b620013831760201c565b620004575760405162461bcd60e51b8152600401808060200182810382526024815260200180620030816024913960400191505060405180910390fd5b604080516301ffc9a760e01b81526380ac58cd60e01b6004820152905182916001600160a01b038316916301ffc9a791602480820192602092909190829003018186803b158015620004a857600080fd5b505afa158015620004bd573d6000803e3d6000fd5b505050506040513d6020811015620004d457600080fd5b5051620005135760405162461bcd60e51b81526004018080602001828103825260358152602001806200302c6035913960400191505060405180910390fd5b5050565b4690565b6000546001600160a01b031690565b612a47806200053a6000396000f3fe6080604052600436106101315760003560e01c80630c53c51c1461013657806319dad16d1461026d5780631b357750146102995780632b4c32be146102cc5780632d0335ab146102fe5780633408e4701461034357806337f82f3714610358578063451c3d801461036d578063514fcac71461039e5780635c975abb146103c85780636a206137146103f15780636f652e1a1461042a578063715018a61461046f5780638da5cb5b146104845780639b214f7714610499578063a01f79d414610566578063a1ba444d1461057b578063ae4f1198146105b1578063ae7b0333146105c6578063af8996f114610605578063d6b268131461062f578063d7b4010714610644578063e61f38511461069c578063ef46e0ca1461070c578063f2fde38b1461073c578063f698da251461076f575b600080fd5b6101f8600480360360a081101561014c57600080fd5b6001600160a01b038235169190810190604081016020820135600160201b81111561017657600080fd5b82018360208201111561018857600080fd5b803590602001918460018302840111600160201b831117156101a957600080fd5b91908080601f016020809104026020016040519081016040528093929190818152602001838380828437600092019190915250929550508235935050506020810135906040013560ff16610784565b6040805160208082528351818301528351919283929083019185019080838360005b8381101561023257818101518382015260200161021a565b50505050905090810190601f16801561025f5780820380516001836020036101000a031916815260200191505b509250505060405180910390f35b34801561027957600080fd5b506102976004803603602081101561029057600080fd5b5035610a39565b005b3480156102a557600080fd5b50610297600480360360208110156102bc57600080fd5b50356001600160a01b0316610b17565b3480156102d857600080fd5b506102e1610bd2565b604080516001600160e01b03199092168252519081900360200190f35b34801561030a57600080fd5b506103316004803603602081101561032157600080fd5b50356001600160a01b0316610bdd565b60408051918252519081900360200190f35b34801561034f57600080fd5b50610331610bf8565b34801561036457600080fd5b506102e1610bfd565b34801561037957600080fd5b50610382610c21565b604080516001600160a01b039092168252519081900360200190f35b3480156103aa57600080fd5b50610297600480360360208110156103c157600080fd5b5035610c30565b3480156103d457600080fd5b506103dd610ce6565b604080519115158252519081900360200190f35b3480156103fd57600080fd5b506102976004803603604081101561041457600080fd5b506001600160a01b038135169060200135610cf6565b34801561043657600080fd5b506102976004803603608081101561044d57600080fd5b506001600160a01b038135169060208101359060408101359060600135610d52565b34801561047b57600080fd5b50610297610db1565b34801561049057600080fd5b50610382610e4b565b3480156104a557600080fd5b50610297600480360360808110156104bc57600080fd5b6001600160a01b038235169160208101359160408201359190810190608081016060820135600160201b8111156104f257600080fd5b82018360208201111561050457600080fd5b803590602001918460018302840111600160201b8311171561052557600080fd5b91908080601f016020809104026020016040519081016040528093929190818152602001838380828437600092019190915250929550610e5a945050505050565b34801561057257600080fd5b50610331610eba565b34801561058757600080fd5b506102976004803603606081101561059e57600080fd5b5080359060208101359060400135610ec0565b3480156105bd57600080fd5b50610331610fd5565b3480156105d257600080fd5b50610297600480360360608110156105e957600080fd5b506001600160a01b038135169060208101359060400135610fdb565b34801561061157600080fd5b506102976004803603602081101561062857600080fd5b5035611043565b34801561063b57600080fd5b506103826110e0565b34801561065057600080fd5b5061066e6004803603602081101561066757600080fd5b50356110ef565b604080519485526001600160a01b039093166020850152838301919091526060830152519081900360800190f35b3480156106a857600080fd5b506106d5600480360360408110156106bf57600080fd5b506001600160a01b038135169060200135611161565b604080519586526001600160a01b039485166020870152929093168483015260608401526080830191909152519081900360a00190f35b34801561071857600080fd5b506102976004803603604081101561072f57600080fd5b50803590602001356111a4565b34801561074857600080fd5b506102976004803603602081101561075f57600080fd5b50356001600160a01b031661128d565b34801561077b57600080fd5b5061033161137d565b60408051606081810183526001600160a01b038816600081815260076020908152908590205484528301529181018690526107c28782878787611389565b6107fd5760405162461bcd60e51b815260040180806020018281038252603d815260200180612857603d913960400191505060405180910390fd5b6001600160a01b03871660008181526007602090815260408083208054600101905580519384523384830181905260609185018281528b51928601929092528a517f5845892132946850460bff5a0083f71031bc5bf9aadcd40f1de79423eac9b10b958d9592948d94919391926080850192918601918190849084905b8381101561089257818101518382015260200161087a565b50505050905090810190601f1680156108bf5780820380516001836020036101000a031916815260200191505b5094505050505060405180910390a1600080306001600160a01b0316888a6040516020018083805190602001908083835b6020831061090f5780518252601f1990920191602091820191016108f0565b6001836020036101000a038019825116818451168082178552505050505050905001826001600160a01b031660601b8152601401925050506040516020818303038152906040526040518082805190602001908083835b602083106109855780518252601f199092019160209182019101610966565b6001836020036101000a0380198251168184511680821785525050505050509050019150506000604051808303816000865af19150503d80600081146109e7576040519150601f19603f3d011682016040523d82523d6000602084013e6109ec565b606091505b509150915081610a2d5760405162461bcd60e51b81526004018080602001828103825260278152602001806129366027913960400191505060405180910390fd5b98975050505050505050565b610a41611476565b6001600160a01b0316610a52610e4b565b6001600160a01b031614610a9b576040805162461bcd60e51b8152602060048201819052602482015260008051602061295d833981519152604482015290519081900360640190fd5b620f42408110610adc5760405162461bcd60e51b815260040180806020018281038252602d8152602001806128e8602d913960400191505060405180910390fd5b60038190556040805182815290517ffa406a120a9e7f2b332bfb7a43d3bf1c3f079262202907a6b69c94b2821a02c69181900360200190a150565b610b1f611476565b6001600160a01b0316610b30610e4b565b6001600160a01b031614610b79576040805162461bcd60e51b8152602060048201819052602482015260008051602061295d833981519152604482015290519081900360640190fd5b610b82816114d2565b600580546001600160a01b0319166001600160a01b0383811691909117918290556040519116907f6e65d1b616d558dd96db7a58e31a954d28d47d57d568e7d7fc7819803878928f90600090a250565b6380ac58cd60e01b81565b6001600160a01b031660009081526007602052604090205490565b465b90565b7f8f9f4b63fb27ea36c52c6e650320201c8f2c6d7c1dfa95f40f5d5da52392016881565b6001546001600160a01b031681565b610c38610ce6565b15610c7d576040805162461bcd60e51b815260206004820152601060248201526f14185d5cd8589b194e881c185d5cd95960821b604482015290519081900360640190fd5b600554600090610c96906001600160a01b0316836115da565b905080602001516001600160a01b0316827f88bd2ba46f3dc2567144331c35bd4c5ced3d547d8828638a152ddd9591c137a683600001516040518082815260200191505060405180910390a35050565b600054600160a01b900460ff1690565b610cfe610ce6565b15610d43576040805162461bcd60e51b815260206004820152601060248201526f14185d5cd8589b194e881c185d5cd95960821b604482015290519081900360640190fd5b610d4d82826115da565b505050565b610d5a610ce6565b15610d9f576040805162461bcd60e51b815260206004820152601060248201526f14185d5cd8589b194e881c185d5cd95960821b604482015290519081900360640190fd5b610dab848484846117cb565b50505050565b610db9611476565b6001600160a01b0316610dca610e4b565b6001600160a01b031614610e13576040805162461bcd60e51b8152602060048201819052602482015260008051602061295d833981519152604482015290519081900360640190fd5b600080546040516001600160a01b039091169060008051602061297d833981519152908390a3600080546001600160a01b0319169055565b6000546001600160a01b031690565b610e62610ce6565b15610ea7576040805162461bcd60e51b815260206004820152601060248201526f14185d5cd8589b194e881c185d5cd95960821b604482015290519081900360640190fd5b610eb384848484611d2b565b5050505050565b60035481565b610ec8610ce6565b15610f0d576040805162461bcd60e51b815260206004820152601060248201526f14185d5cd8589b194e881c185d5cd95960821b604482015290519081900360640190fd5b600554610f25906001600160a01b03168484846117cb565b6005546001600160a01b039081166000908152600260208181526040808420888552825292839020835160a081018552815480825260018301548716828501819052948301549096168186015260038201546060808301829052600490930154608083018190528651978852938701528585019290925292519093919287927f9493ae82b9872af74473effb9d302efba34e0df360a99cc5e577cd3f28e3cab2929081900390910190a350505050565b60045481565b610fe3610ce6565b15611028576040805162461bcd60e51b815260206004820152601060248201526f14185d5cd8589b194e881c185d5cd95960821b604482015290519081900360640190fd5b610dab83838360405180602001604052806000815250611d2b565b61104b611476565b6001600160a01b031661105c610e4b565b6001600160a01b0316146110a5576040805162461bcd60e51b8152602060048201819052602482015260008051602061295d833981519152604482015290519081900360640190fd5b60048190556040805182815290517fe7fa8737293f41b5dfa0d5c3e552860a06275bed7015581b083c7be7003308ba9181900360200190a150565b6005546001600160a01b031681565b6005546001600160a01b03908116600090815260026020818152604080842095845294815291849020845160a081018652815480825260018301548616948201859052928201549094169484019490945260038401546060840181905260049094015460809093018390529390929190565b600260208181526000938452604080852090915291835291208054600182015492820154600383015460049093015491936001600160a01b039081169391169185565b6111ac610ce6565b156111f1576040805162461bcd60e51b815260206004820152601060248201526f14185d5cd8589b194e881c185d5cd95960821b604482015290519081900360640190fd5b6000611223600560009054906101000a90046001600160a01b0316848460405180602001604052806000815250611d2b565b905061122d611476565b6001600160a01b031681602001516001600160a01b0316847fedcc7e1c269bc295dc24e74dc46b129c8449e6b0544af73b57c4201b78d119db846000015186604051808381526020018281526020019250505060405180910390a4505050565b611295611476565b6001600160a01b03166112a6610e4b565b6001600160a01b0316146112ef576040805162461bcd60e51b8152602060048201819052602482015260008051602061295d833981519152604482015290519081900360640190fd5b6001600160a01b0381166113345760405162461bcd60e51b81526004018080602001828103825260268152602001806127876026913960400191505060405180910390fd5b600080546040516001600160a01b038085169392169160008051602061297d83398151915291a3600080546001600160a01b0319166001600160a01b0392909216919091179055565b60065481565b3b151590565b60006001600160a01b0386166113e3576040805162461bcd60e51b815260206004820152601a6024820152792726aa11bb32b934b33c9d1024a72b20a624a22fa9a4a3a722a960311b604482015290519081900360640190fd5b60016113f66113f1876124a8565b61252b565b83868660405160008152602001604052604051808581526020018460ff1681526020018381526020018281526020019450505050506020604051602081039080840390855afa15801561144d573d6000803e3d6000fd5b505050602060405103516001600160a01b0316866001600160a01b031614905095945050505050565b6000333014156114cd57600080368080601f0160208091040260200160405190810160405280939291908181526020018383808284376000920191909152505050503601516001600160a01b03169150610bfa9050565b503390565b6114e4816001600160a01b0316611383565b61151f5760405162461bcd60e51b815260040180806020018281038252602481526020018061299d6024913960400191505060405180910390fd5b604080516301ffc9a760e01b81526380ac58cd60e01b6004820152905182916001600160a01b038316916301ffc9a791602480820192602092909190829003018186803b15801561156f57600080fd5b505afa158015611583573d6000803e3d6000fd5b505050506040513d602081101561159957600080fd5b50516115d65760405162461bcd60e51b81526004018080602001828103825260358152602001806128226035913960400191505060405180910390fd5b5050565b6115e26126e2565b60006115ec611476565b6001600160a01b038086166000908152600260208181526040808420898552825292839020835160a0810185528154808252600183015487169382019390935292810154909416928201929092526003830154606082015260049092015460808301529192509061169a576040805162461bcd60e51b8152602060048201526013602482015272105cdcd95d081b9bdd081c1d589b1a5cda1959606a1b604482015290519081900360640190fd5b816001600160a01b031681602001516001600160a01b031614806116d657506116c1610e4b565b6001600160a01b0316826001600160a01b0316145b61171b576040805162461bcd60e51b81526020600482015260116024820152702ab730baba3437b934bd32b2103ab9b2b960791b604482015290519081900360640190fd5b80516020808301516040808501516001600160a01b03808b16600090815260028087528482208c835287528482208281556001810180546001600160a01b031990811690915591810180549092169091556003810182905560040155825186815281831695810195909552825193949193908516928a927f0325426328de5b91ae4ad8462ad4076de4bcaf4551e81556185cacde5a425c6b929081900390910190a3509193505050505b92915050565b6117d4846114d2565b60006117de611476565b905060008590506000816001600160a01b0316636352211e876040518263ffffffff1660e01b81526004018082815260200191505060206040518083038186803b15801561182b57600080fd5b505afa15801561183f573d6000803e3d6000fd5b505050506040513d602081101561185557600080fd5b505190506001600160a01b03838116908216146118b9576040805162461bcd60e51b815260206004820181905260248201527f4f6e6c7920746865206f776e65722063616e20637265617465206f7264657273604482015290519081900360640190fd5b306001600160a01b0316826001600160a01b031663081812fc886040518263ffffffff1660e01b81526004018082815260200191505060206040518083038186803b15801561190757600080fd5b505afa15801561191b573d6000803e3d6000fd5b505050506040513d602081101561193157600080fd5b50516001600160a01b031614806119c057506040805163e985e9c560e01b81526001600160a01b03838116600483015230602483015291519184169163e985e9c591604480820192602092909190829003018186803b15801561199357600080fd5b505afa1580156119a7573d6000803e3d6000fd5b505050506040513d60208110156119bd57600080fd5b50515b6119fb5760405162461bcd60e51b81526004018080602001828103825260328152602001806128946032913960400191505060405180910390fd5b60008511611a50576040805162461bcd60e51b815260206004820152601d60248201527f50726963652073686f756c6420626520626967676572207468616e2030000000604482015290519081900360640190fd5b611a5b42603c612569565b8411611a985760405162461bcd60e51b81526004018080602001828103825260368152602001806127ad6036913960400191505060405180910390fd5b60004282888a8960405160200180868152602001856001600160a01b031660601b8152601401848152602001836001600160a01b031660601b8152601401828152602001955050505050506040516020818303038152906040528051906020012090506040518060a00160405280828152602001836001600160a01b03168152602001896001600160a01b0316815260200187815260200186815250600260008a6001600160a01b03166001600160a01b0316815260200190815260200160002060008981526020019081526020016000206000820151816000015560208201518160010160006101000a8154816001600160a01b0302191690836001600160a01b0316021790555060408201518160020160006101000a8154816001600160a01b0302191690836001600160a01b03160217905550606082015181600301556080820151816004015590505060006004541115611cca576001546001600160a01b03166323b872dd85611c0a610e4b565b6004546040518463ffffffff1660e01b815260040180846001600160a01b03168152602001836001600160a01b031681526020018281526020019350505050602060405180830381600087803b158015611c6357600080fd5b505af1158015611c77573d6000803e3d6000fd5b505050506040513d6020811015611c8d57600080fd5b5051611cca5760405162461bcd60e51b815260040180806020018281038252603f8152602001806127e3603f913960400191505060405180910390fd5b604080518281526001600160a01b038a811660208301528183018990526060820188905291519184169189917f84c66c3f7ba4b390e20e8e8233e2a516f3ce34a72749e4f12bd010dfba238039919081900360800190a35050505050505050565b611d336126e2565b611d3c856114d2565b6000611d46611476565b604080516301ffc9a760e01b8152638f9f4b6360e01b6004820152905191925087916001600160a01b038316916301ffc9a7916024808301926020929190829003018186803b158015611d9857600080fd5b505afa158015611dac573d6000803e3d6000fd5b505050506040513d6020811015611dc257600080fd5b505115611edf5760408051638f9f4b6360e01b815260048101888152602482019283528651604483015286516001600160a01b03851693638f9f4b63938b938a9390929160640190602085019080838360005b83811015611e2d578181015183820152602001611e15565b50505050905090810190601f168015611e5a5780820380516001836020036101000a031916815260200191505b50935050505060206040518083038186803b158015611e7857600080fd5b505afa158015611e8c573d6000803e3d6000fd5b505050506040513d6020811015611ea257600080fd5b5051611edf5760405162461bcd60e51b81526004018080602001828103825260228152602001806128c66022913960400191505060405180910390fd5b6001600160a01b0380881660009081526002602081815260408084208b8552825292839020835160a081018552815480825260018301548716938201939093529281015490941692820192909252600383015460608201526004909201546080830152611f89576040805162461bcd60e51b8152602060048201526013602482015272105cdcd95d081b9bdd081c1d589b1a5cda1959606a1b604482015290519081900360640190fd5b60208101516001600160a01b038116611fdb576040805162461bcd60e51b815260206004820152600f60248201526e496e76616c6964206164647265737360881b604482015290519081900360640190fd5b836001600160a01b0316816001600160a01b03161415612036576040805162461bcd60e51b81526020600482015260116024820152702ab730baba3437b934bd32b2103ab9b2b960791b604482015290519081900360640190fd5b86826060015114612089576040805162461bcd60e51b8152602060048201526018602482015277151a19481c1c9a58d9481a5cc81b9bdd0818dbdc9c9958dd60421b604482015290519081900360640190fd5b816080015142106120d5576040805162461bcd60e51b8152602060048201526011602482015270151a19481bdc99195c88195e1c1a5c9959607a1b604482015290519081900360640190fd5b826001600160a01b0316636352211e896040518263ffffffff1660e01b81526004018082815260200191505060206040518083038186803b15801561211957600080fd5b505afa15801561212d573d6000803e3d6000fd5b505050506040513d602081101561214357600080fd5b50516001600160a01b0382811691161461218e5760405162461bcd60e51b81526004018080602001828103825260218152602001806129f16021913960400191505060405180910390fd5b81516001600160a01b038a1660009081526002602081815260408084208d855290915282208281556001810180546001600160a01b031990811690915591810180549092169091556003808201839055600490910182905554909190156122ec57612211620f424061220b6003548c6125c890919063ffffffff16565b90612621565b6001549092506001600160a01b03166323b872dd8761222e610e4b565b856040518463ffffffff1660e01b815260040180846001600160a01b03168152602001836001600160a01b031681526020018281526020019350505050602060405180830381600087803b15801561228557600080fd5b505af1158015612299573d6000803e3d6000fd5b505050506040513d60208110156122af57600080fd5b50516122ec5760405162461bcd60e51b81526004018080602001828103825260338152602001806127116033913960400191505060405180910390fd5b6001546001600160a01b03166323b872dd87856123098d87612685565b6040518463ffffffff1660e01b815260040180846001600160a01b03168152602001836001600160a01b031681526020018281526020019350505050602060405180830381600087803b15801561235f57600080fd5b505af1158015612373573d6000803e3d6000fd5b505050506040513d602081101561238957600080fd5b50516123c65760405162461bcd60e51b81526004018080602001828103825260308152602001806129c16030913960400191505060405180910390fd5b846001600160a01b03166342842e0e84888d6040518463ffffffff1660e01b815260040180846001600160a01b03168152602001836001600160a01b031681526020018281526020019350505050600060405180830381600087803b15801561242e57600080fd5b505af1158015612442573d6000803e3d6000fd5b5050604080518481526001600160a01b038f811660208301528183018e90529151828b16945091871692508d917f695ec315e8a642a74d450a4505eeea53df699b47a7378c7d752e97d5b16eb9bb9181900360600190a450919998505050505050505050565b600060405180608001604052806043815260200161274460439139805190602001208260000151836020015184604001518051906020012060405160200180858152602001848152602001836001600160a01b03168152602001828152602001945050505050604051602081830303815290604052805190602001209050919050565b6006546040805161190160f01b6020808301919091526022820193909352604280820194909452815180820390940184526062019052815191012090565b6000828201838110156125c1576040805162461bcd60e51b815260206004820152601b60248201527a536166654d6174683a206164646974696f6e206f766572666c6f7760281b604482015290519081900360640190fd5b9392505050565b6000826125d7575060006117c5565b828202828482816125e457fe5b04146125c15760405162461bcd60e51b81526004018080602001828103825260218152602001806129156021913960400191505060405180910390fd5b6000808211612674576040805162461bcd60e51b815260206004820152601a602482015279536166654d6174683a206469766973696f6e206279207a65726f60301b604482015290519081900360640190fd5b81838161267d57fe5b049392505050565b6000828211156126dc576040805162461bcd60e51b815260206004820152601e60248201527f536166654d6174683a207375627472616374696f6e206f766572666c6f770000604482015290519081900360640190fd5b50900390565b6040805160a0810182526000808252602082018190529181018290526060810182905260808101919091529056fe5472616e73666572696e67207468652063757420746f20746865204d61726b6574706c616365206f776e6572206661696c65644d6574615472616e73616374696f6e2875696e74323536206e6f6e63652c616464726573732066726f6d2c62797465732066756e6374696f6e5369676e6174757265294f776e61626c653a206e6577206f776e657220697320746865207a65726f20616464726573735075626c69636174696f6e2073686f756c64206265206d6f7265207468616e2031206d696e75746520696e20746865206675747572655472616e73666572696e6720746865207075626c69636174696f6e2066656520746f20746865204d61726b6574706c616365206f776e6572206661696c6564546865204e465420636f6e74726163742068617320616e20696e76616c69642045524337323120696d706c656d656e746174696f6e4e4d5423657865637574654d6574615472616e73616374696f6e3a205349474e45525f414e445f5349474e41545552455f444f5f4e4f545f4d4154434854686520636f6e7472616374206973206e6f7420617574686f72697a656420746f206d616e616765207468652061737365745468652061737365742066696e6765727072696e74206973206e6f742076616c6964546865206f776e6572206375742073686f756c64206265206265747765656e203020616e64203939392c393939536166654d6174683a206d756c7469706c69636174696f6e206f766572666c6f774e4d5423657865637574654d6574615472616e73616374696f6e3a2043414c4c5f4641494c45444f776e61626c653a2063616c6c6572206973206e6f7420746865206f776e65728be0079c531659141344cd1fd0a4f28419497f9722a3daafe3b4186f6b6457e0546865204e465420416464726573732073686f756c64206265206120636f6e74726163745472616e73666572696e67207468652073616c6520616d6f756e7420746f207468652073656c6c6572206661696c65645468652073656c6c6572206973206e6f206c6f6e67657220746865206f776e6572a26469706673582212206b86eaefaa6324224e0a6b5faf0c22a865d6fee2136dd98c1bb0467435bedf5464736f6c6343000706003354686520616363657074656420746f6b656e2061646472657373206d7573742062652061206465706c6f79656420636f6e74726163744f776e61626c653a206e6577206f776e657220697320746865207a65726f2061646472657373454950373132446f6d61696e28737472696e67206e616d652c737472696e672076657273696f6e2c6164647265737320766572696679696e67436f6e74726163742c627974657333322073616c7429546865204e465420636f6e74726163742068617320616e20696e76616c69642045524337323120696d706c656d656e746174696f6e8be0079c531659141344cd1fd0a4f28419497f9722a3daafe3b4186f6b6457e0546865204e465420416464726573732073686f756c64206265206120636f6e7472616374",
  "linkReferences": {},
  "deployedLinkReferences": {}
}