{
  "_format": "hh-sol-artifact-1",
  "contractName": "MarketplaceTest",
  "sourceName": "contracts/mocks/MarketplaceTest.sol",
  "abi": [
    {
      "inputs": [
        {
          "internalType": "address",
          "name": "_acceptedToken",
          "type": "address"
        },
        {
          "internalType": "address",
          "name": "_legacyNFTAddress",
          "type": "address"
        },
        {
          "internalType": "address",
          "name": "_owner",
          "type": "address"
        }
      ],
      "stateMutability": "nonpayable",
      "type": "constructor"
    },
    {
      "anonymous": false,
      "inputs": [
        {
          "indexed": false,
          "internalType": "bytes32",
          "name": "id",
          "type": "bytes32"
        },
        {
          "indexed": true,
          "internalType": "uint256",
          "name": "assetId",
          "type": "uint256"
        },
        {
          "indexed": true,
          "internalType": "address",
          "name": "seller",
          "type": "address"
        }
      ],
      "name": "AuctionCancelled",
      "type": "event"
    },
    {
      "anonymous": false,
      "inputs": [
        {
          "indexed": false,
          "internalType": "bytes32",
          "name": "id",
          "type": "bytes32"
        },
        {
          "indexed": true,
          "internalType": "uint256",
          "name": "assetId",
          "type": "uint256"
        },
        {
          "indexed": true,
          "internalType": "address",
          "name": "seller",
          "type": "address"
        },
        {
          "indexed": false,
          "internalType": "uint256",
          "name": "priceInWei",
          "type": "uint256"
        },
        {
          "indexed": false,
          "internalType": "uint256",
          "name": "expiresAt",
          "type": "uint256"
        }
      ],
      "name": "AuctionCreated",
      "type": "event"
    },
    {
      "anonymous": false,
      "inputs": [
        {
          "indexed": false,
          "internalType": "bytes32",
          "name": "id",
          "type": "bytes32"
        },
        {
          "indexed": true,
          "internalType": "uint256",
          "name": "assetId",
          "type": "uint256"
        },
        {
          "indexed": true,
          "internalType": "address",
          "name": "seller",
          "type": "address"
        },
        {
          "indexed": false,
          "internalType": "uint256",
          "name": "totalPrice",
          "type": "uint256"
        },
        {
          "indexed": true,
          "internalType": "address",
          "name": "winner",
          "type": "address"
        }
      ],
      "name": "AuctionSuccessful",
      "type": "event"
    },
    {
      "anonymous": false,
      "inputs": [
        {
          "indexed": true,
          "internalType": "address",
          "name": "legacyNFTAddress",
          "type": "address"
        }
      ],
      "name": "ChangeLegacyNFTAddress",
      "type": "event"
    },
    {
      "anonymous": false,
      "inputs": [
        {
          "indexed": false,
          "internalType": "uint256",
          "name": "ownerCutPerMillion",
          "type": "uint256"
        }
      ],
      "name": "ChangedOwnerCutPerMillion",
      "type": "event"
    },
    {
      "anonymous": false,
      "inputs": [
        {
          "indexed": false,
          "internalType": "uint256",
          "name": "publicationFee",
          "type": "uint256"
        }
      ],
      "name": "ChangedPublicationFee",
      "type": "event"
    },
    {
      "anonymous": false,
      "inputs": [
        {
          "indexed": false,
          "internalType": "address",
          "name": "userAddress",
          "type": "address"
        },
        {
          "indexed": false,
          "internalType": "address",
          "name": "relayerAddress",
          "type": "address"
        },
        {
          "indexed": false,
          "internalType": "bytes",
          "name": "functionSignature",
          "type": "bytes"
        }
      ],
      "name": "MetaTransactionExecuted",
      "type": "event"
    },
    {
      "anonymous": false,
      "inputs": [
        {
          "indexed": false,
          "internalType": "bytes32",
          "name": "id",
          "type": "bytes32"
        },
        {
          "indexed": true,
          "internalType": "uint256",
          "name": "assetId",
          "type": "uint256"
        },
        {
          "indexed": true,
          "internalType": "address",
          "name": "seller",
          "type": "address"
        },
        {
          "indexed": false,
          "internalType": "address",
          "name": "nftAddress",
          "type": "address"
        }
      ],
      "name": "OrderCancelled",
      "type": "event"
    },
    {
      "anonymous": false,
      "inputs": [
        {
          "indexed": false,
          "internalType": "bytes32",
          "name": "id",
          "type": "bytes32"
        },
        {
          "indexed": true,
          "internalType": "uint256",
          "name": "assetId",
          "type": "uint256"
        },
        {
          "indexed": true,
          "internalType": "address",
          "name": "seller",
          "type": "address"
        },
        {
          "indexed": false,
          "internalType": "address",
          "name": "nftAddress",
          "type": "address"
        },
        {
          "indexed": false,
          "internalType": "uint256",
          "name": "priceInWei",
          "type": "uint256"
        },
        {
          "indexed": false,
          "internalType": "uint256",
          "name": "expiresAt",
          "type": "uint256"
        }
      ],
      "name": "OrderCreated",
      "type": "event"
    },
    {
      "anonymous": false,
      "inputs": [
        {
          "indexed": false,
          "internalType": "bytes32",
          "name": "id",
          "type": "bytes32"
        },
        {
          "indexed": true,
          "internalType": "uint256",
          "name": "assetId",
          "type": "uint256"
        },
        {
          "indexed": true,
          "internalType": "address",
          "name": "seller",
          "type": "address"
        },
        {
          "indexed": false,
          "internalType": "address",
          "name": "nftAddress",
          "type": "address"
        },
        {
          "indexed": false,
          "internalType": "uint256",
          "name": "totalPrice",
          "type": "uint256"
        },
        {
          "indexed": true,
          "internalType": "address",
          "name": "buyer",
          "type": "address"
        }
      ],
      "name": "OrderSuccessful",
      "type": "event"
    },
    {
      "anonymous": false,
      "inputs": [
        {
          "indexed": true,
          "internalType": "address",
          "name": "previousOwner",
          "type": "address"
        },
        {
          "indexed": true,
          "internalType": "address",
          "name": "newOwner",
          "type": "address"
        }
      ],
      "name": "OwnershipTransferred",
      "type": "event"
    },
    {
      "anonymous": false,
      "inputs": [
        {
          "indexed": false,
          "internalType": "address",
          "name": "account",
          "type": "address"
        }
      ],
      "name": "Paused",
      "type": "event"
    },
    {
      "anonymous": false,
      "inputs": [
        {
          "indexed": false,
          "internalType": "address",
          "name": "account",
          "type": "address"
        }
      ],
      "name": "Unpaused",
      "type": "event"
    },
    {
      "inputs": [],
      "name": "ERC721_Interface",
      "outputs": [
        {
          "internalType": "bytes4",
          "name": "",
          "type": "bytes4"
        }
      ],
      "stateMutability": "view",
      "type": "function"
    },
    {
      "inputs": [],
      "name": "InterfaceId_ValidateFingerprint",
      "outputs": [
        {
          "internalType": "bytes4",
          "name": "",
          "type": "bytes4"
        }
      ],
      "stateMutability": "view",
      "type": "function"
    },
    {
      "inputs": [],
      "name": "acceptedToken",
      "outputs": [
        {
          "internalType": "contract ERC20Interface",
          "name": "",
          "type": "address"
        }
      ],
      "stateMutability": "view",
      "type": "function"
    },
    {
      "inputs": [
        {
          "internalType": "uint256",
          "name": "assetId",
          "type": "uint256"
        }
      ],
      "name": "auctionByAssetId",
      "outputs": [
        {
          "internalType": "bytes32",
          "name": "",
          "type": "bytes32"
        },
        {
          "internalType": "address",
          "name": "",
          "type": "address"
        },
        {
          "internalType": "uint256",
          "name": "",
          "type": "uint256"
        },
        {
          "internalType": "uint256",
          "name": "",
          "type": "uint256"
        }
      ],
      "stateMutability": "view",
      "type": "function"
    },
    {
      "inputs": [
        {
          "internalType": "uint256",
          "name": "assetId",
          "type": "uint256"
        }
      ],
      "name": "cancelOrder",
      "outputs": [],
      "stateMutability": "nonpayable",
      "type": "function"
    },
    {
      "inputs": [
        {
          "internalType": "address",
          "name": "nftAddress",
          "type": "address"
        },
        {
          "internalType": "uint256",
          "name": "assetId",
          "type": "uint256"
        }
      ],
      "name": "cancelOrder",
      "outputs": [],
      "stateMutability": "nonpayable",
      "type": "function"
    },
    {
      "inputs": [
        {
          "internalType": "address",
          "name": "nftAddress",
          "type": "address"
        },
        {
          "internalType": "uint256",
          "name": "assetId",
          "type": "uint256"
        }
      ],
      "name": "cancelOrderNew",
      "outputs": [],
      "stateMutability": "nonpayable",
      "type": "function"
    },
    {
      "inputs": [
        {
          "internalType": "address",
          "name": "nftAddress",
          "type": "address"
        },
        {
          "internalType": "uint256",
          "name": "assetId",
          "type": "uint256"
        },
        {
          "internalType": "uint256",
          "name": "priceInWei",
          "type": "uint256"
        },
        {
          "internalType": "uint256",
          "name": "expiresAt",
          "type": "uint256"
        }
      ],
      "name": "createOrder",
      "outputs": [],
      "stateMutability": "nonpayable",
      "type": "function"
    },
    {
      "inputs": [
        {
          "internalType": "uint256",
          "name": "assetId",
          "type": "uint256"
        },
        {
          "internalType": "uint256",
          "name": "priceInWei",
          "type": "uint256"
        },
        {
          "internalType": "uint256",
          "name": "expiresAt",
          "type": "uint256"
        }
      ],
      "name": "createOrder",
      "outputs": [],
      "stateMutability": "nonpayable",
      "type": "function"
    },
    {
      "inputs": [],
      "name": "domainSeparator",
      "outputs": [
        {
          "internalType": "bytes32",
          "name": "",
          "type": "bytes32"
        }
      ],
      "stateMutability": "view",
      "type": "function"
    },
    {
      "inputs": [
        {
          "internalType": "address",
          "name": "userAddress",
          "type": "address"
        },
        {
          "internalType": "bytes",
          "name": "functionSignature",
          "type": "bytes"
        },
        {
          "internalType": "bytes32",
          "name": "sigR",
          "type": "bytes32"
        },
        {
          "internalType": "bytes32",
          "name": "sigS",
          "type": "bytes32"
        },
        {
          "internalType": "uint8",
          "name": "sigV",
          "type": "uint8"
        }
      ],
      "name": "executeMetaTransaction",
      "outputs": [
        {
          "internalType": "bytes",
          "name": "",
          "type": "bytes"
        }
      ],
      "stateMutability": "payable",
      "type": "function"
    },
    {
      "inputs": [
        {
          "internalType": "address",
          "name": "nftAddress",
          "type": "address"
        },
        {
          "internalType": "uint256",
          "name": "assetId",
          "type": "uint256"
        },
        {
          "internalType": "uint256",
          "name": "price",
          "type": "uint256"
        }
      ],
      "name": "executeOrder",
      "outputs": [],
      "stateMutability": "nonpayable",
      "type": "function"
    },
    {
      "inputs": [
        {
          "internalType": "uint256",
          "name": "assetId",
          "type": "uint256"
        },
        {
          "internalType": "uint256",
          "name": "price",
          "type": "uint256"
        }
      ],
      "name": "executeOrder",
      "outputs": [],
      "stateMutability": "nonpayable",
      "type": "function"
    },
    {
      "inputs": [],
      "name": "getChainId",
      "outputs": [
        {
          "internalType": "uint256",
          "name": "",
          "type": "uint256"
        }
      ],
      "stateMutability": "view",
      "type": "function"
    },
    {
      "inputs": [
        {
          "internalType": "address",
          "name": "user",
          "type": "address"
        }
      ],
      "name": "getNonce",
      "outputs": [
        {
          "internalType": "uint256",
          "name": "nonce",
          "type": "uint256"
        }
      ],
      "stateMutability": "view",
      "type": "function"
    },
    {
      "inputs": [],
      "name": "legacyNFTAddress",
      "outputs": [
        {
          "internalType": "address",
          "name": "",
          "type": "address"
        }
      ],
      "stateMutability": "view",
      "type": "function"
    },
    {
      "inputs": [
        {
          "internalType": "address",
          "name": "",
          "type": "address"
        },
        {
          "internalType": "uint256",
          "name": "",
          "type": "uint256"
        }
      ],
      "name": "orderByAssetId",
      "outputs": [
        {
          "internalType": "bytes32",
          "name": "id",
          "type": "bytes32"
        },
        {
          "internalType": "address",
          "name": "seller",
          "type": "address"
        },
        {
          "internalType": "address",
          "name": "nftAddress",
          "type": "address"
        },
        {
          "internalType": "uint256",
          "name": "price",
          "type": "uint256"
        },
        {
          "internalType": "uint256",
          "name": "expiresAt",
          "type": "uint256"
        }
      ],
      "stateMutability": "view",
      "type": "function"
    },
    {
      "inputs": [],
      "name": "owner",
      "outputs": [
        {
          "internalType": "address",
          "name": "",
          "type": "address"
        }
      ],
      "stateMutability": "view",
      "type": "function"
    },
    {
      "inputs": [],
      "name": "ownerCutPerMillion",
      "outputs": [
        {
          "internalType": "uint256",
          "name": "",
          "type": "uint256"
        }
      ],
      "stateMutability": "view",
      "type": "function"
    },
    {
      "inputs": [],
      "name": "paused",
      "outputs": [
        {
          "internalType": "bool",
          "name": "",
          "type": "bool"
        }
      ],
      "stateMutability": "view",
      "type": "function"
    },
    {
      "inputs": [],
      "name": "publicationFeeInWei",
      "outputs": [
        {
          "internalType": "uint256",
          "name": "",
          "type": "uint256"
        }
      ],
      "stateMutability": "view",
      "type": "function"
    },
    {
      "inputs": [],
      "name": "renounceOwnership",
      "outputs": [],
      "stateMutability": "nonpayable",
      "type": "function"
    },
    {
      "inputs": [
        {
          "internalType": "address",
          "name": "nftAddress",
          "type": "address"
        },
        {
          "internalType": "uint256",
          "name": "assetId",
          "type": "uint256"
        },
        {
          "internalType": "uint256",
          "name": "price",
          "type": "uint256"
        },
        {
          "internalType": "bytes",
          "name": "fingerprint",
          "type": "bytes"
        }
      ],
      "name": "safeExecuteOrder",
      "outputs": [],
      "stateMutability": "nonpayable",
      "type": "function"
    },
    {
      "inputs": [
        {
          "internalType": "address",
          "name": "_legacyNFTAddress",
          "type": "address"
        }
      ],
      "name": "setLegacyNFTAddress",
      "outputs": [],
      "stateMutability": "nonpayable",
      "type": "function"
    },
    {
      "inputs": [
        {
          "internalType": "uint256",
          "name": "_ownerCutPerMillion",
          "type": "uint256"
        }
      ],
      "name": "setOwnerCutPerMillion",
      "outputs": [],
      "stateMutability": "nonpayable",
      "type": "function"
    },
    {
      "inputs": [
        {
          "internalType": "uint256",
          "name": "_publicationFee",
          "type": "uint256"
        }
      ],
      "name": "setPublicationFee",
      "outputs": [],
      "stateMutability": "nonpayable",
      "type": "function"
    },
    {
      "inputs": [
        {
          "internalType": "address",
          "name": "newOwner",
          "type": "address"
        }
      ],
      "name": "transferOwnership",
      "outputs": [],
      "stateMutability": "nonpayable",
      "type": "function"
    }
  ],
  "bytecode": "0x60806040523480156200001157600080fd5b50604051620030b7380380620030b7833981810160405260608110156200003757600080fd5b5080516020820151604090920151909190828282600062000057620001f9565b600080546001600160a01b0319166001600160a01b03831690811782556040519293509160008051602062003073833981519152908290a3506000805460ff60a01b19169055604080518082018252601881527f446563656e7472616c616e64204d61726b6574706c6163650000000000000000602080830191909152825180840190935260018352603160f81b90830152620000f49162000258565b6001600160a01b03811662000140576040805162461bcd60e51b815260206004820152600d60248201526c24b73b30b634b21037bbb732b960991b604482015290519081900360640190fd5b6200014b81620002f2565b6200016a836001600160a01b0316620003fc60201b6200138e1760201c565b620001a75760405162461bcd60e51b815260040180806020018281038252603681526020018062002f936036913960400191505060405180910390fd5b600180546001600160a01b0319166001600160a01b038516179055620001cd8262000402565b50600580546001600160a01b0319166001600160a01b0392909216919091179055506200053192505050565b6000333014156200025257600080368080601f0160208091040260200160405190810160405280939291908181526020018383808284376000920191909152505050503601516001600160a01b03169150620002559050565b50335b90565b6040518060800160405280604f815260200162002fef604f91398051906020012082805190602001208280519060200120306200029a6200051e60201b60201c565b60001b60405160200180868152602001858152602001848152602001836001600160a01b0316815260200182815260200195505050505050604051602081830303815290604052805190602001206006819055505050565b620002fc620001f9565b6001600160a01b03166200030f62000522565b6001600160a01b0316146200036b576040805162461bcd60e51b815260206004820181905260248201527f4f776e61626c653a2063616c6c6572206973206e6f7420746865206f776e6572604482015290519081900360640190fd5b6001600160a01b038116620003b25760405162461bcd60e51b815260040180806020018281038252602681526020018062002fc96026913960400191505060405180910390fd5b600080546040516001600160a01b03808516939216916000805160206200307383398151915291a3600080546001600160a01b0319166001600160a01b0392909216919091179055565b3b151590565b62000421816001600160a01b0316620003fc60201b6200138e1760201c565b6200045e5760405162461bcd60e51b8152600401808060200182810382526024815260200180620030936024913960400191505060405180910390fd5b604080516301ffc9a760e01b81526380ac58cd60e01b6004820152905182916001600160a01b038316916301ffc9a791602480820192602092909190829003018186803b158015620004af57600080fd5b505afa158015620004c4573d6000803e3d6000fd5b505050506040513d6020811015620004db57600080fd5b50516200051a5760405162461bcd60e51b81526004018080602001828103825260358152602001806200303e6035913960400191505060405180910390fd5b5050565b4690565b6000546001600160a01b031690565b612a5280620005416000396000f3fe60806040526004361061013c5760003560e01c80630c53c51c1461014157806319dad16d146102785780631b357750146102a45780632aa765c5146102d75780632b4c32be146103105780632d0335ab146103425780633408e4701461038757806337f82f371461039c578063451c3d80146103b1578063514fcac7146103e25780635c975abb1461040c5780636a206137146102d75780636f652e1a14610435578063715018a61461047a5780638da5cb5b1461048f5780639b214f77146104a4578063a01f79d414610571578063a1ba444d14610586578063ae4f1198146105bc578063ae7b0333146105d1578063af8996f114610610578063d6b268131461063a578063d7b401071461064f578063e61f3851146106a7578063ef46e0ca14610717578063f2fde38b14610747578063f698da251461077a575b600080fd5b610203600480360360a081101561015757600080fd5b6001600160a01b038235169190810190604081016020820135600160201b81111561018157600080fd5b82018360208201111561019357600080fd5b803590602001918460018302840111600160201b831117156101b457600080fd5b91908080601f016020809104026020016040519081016040528093929190818152602001838380828437600092019190915250929550508235935050506020810135906040013560ff1661078f565b6040805160208082528351818301528351919283929083019185019080838360005b8381101561023d578181015183820152602001610225565b50505050905090810190601f16801561026a5780820380516001836020036101000a031916815260200191505b509250505060405180910390f35b34801561028457600080fd5b506102a26004803603602081101561029b57600080fd5b5035610a44565b005b3480156102b057600080fd5b506102a2600480360360208110156102c757600080fd5b50356001600160a01b0316610b22565b3480156102e357600080fd5b506102a2600480360360408110156102fa57600080fd5b506001600160a01b038135169060200135610bdd565b34801561031c57600080fd5b50610325610c39565b604080516001600160e01b03199092168252519081900360200190f35b34801561034e57600080fd5b506103756004803603602081101561036557600080fd5b50356001600160a01b0316610c44565b60408051918252519081900360200190f35b34801561039357600080fd5b50610375610c5f565b3480156103a857600080fd5b50610325610c64565b3480156103bd57600080fd5b506103c6610c88565b604080516001600160a01b039092168252519081900360200190f35b3480156103ee57600080fd5b506102a26004803603602081101561040557600080fd5b5035610c97565b34801561041857600080fd5b50610421610d4d565b604080519115158252519081900360200190f35b34801561044157600080fd5b506102a26004803603608081101561045857600080fd5b506001600160a01b038135169060208101359060408101359060600135610d5d565b34801561048657600080fd5b506102a2610dbc565b34801561049b57600080fd5b506103c6610e56565b3480156104b057600080fd5b506102a2600480360360808110156104c757600080fd5b6001600160a01b038235169160208101359160408201359190810190608081016060820135600160201b8111156104fd57600080fd5b82018360208201111561050f57600080fd5b803590602001918460018302840111600160201b8311171561053057600080fd5b91908080601f016020809104026020016040519081016040528093929190818152602001838380828437600092019190915250929550610e65945050505050565b34801561057d57600080fd5b50610375610ec5565b34801561059257600080fd5b506102a2600480360360608110156105a957600080fd5b5080359060208101359060400135610ecb565b3480156105c857600080fd5b50610375610fe0565b3480156105dd57600080fd5b506102a2600480360360608110156105f457600080fd5b506001600160a01b038135169060208101359060400135610fe6565b34801561061c57600080fd5b506102a26004803603602081101561063357600080fd5b503561104e565b34801561064657600080fd5b506103c66110eb565b34801561065b57600080fd5b506106796004803603602081101561067257600080fd5b50356110fa565b604080519485526001600160a01b039093166020850152838301919091526060830152519081900360800190f35b3480156106b357600080fd5b506106e0600480360360408110156106ca57600080fd5b506001600160a01b03813516906020013561116c565b604080519586526001600160a01b039485166020870152929093168483015260608401526080830191909152519081900360a00190f35b34801561072357600080fd5b506102a26004803603604081101561073a57600080fd5b50803590602001356111af565b34801561075357600080fd5b506102a26004803603602081101561076a57600080fd5b50356001600160a01b0316611298565b34801561078657600080fd5b50610375611388565b60408051606081810183526001600160a01b038816600081815260076020908152908590205484528301529181018690526107cd8782878787611394565b6108085760405162461bcd60e51b815260040180806020018281038252603d815260200180612862603d913960400191505060405180910390fd5b6001600160a01b03871660008181526007602090815260408083208054600101905580519384523384830181905260609185018281528b51928601929092528a517f5845892132946850460bff5a0083f71031bc5bf9aadcd40f1de79423eac9b10b958d9592948d94919391926080850192918601918190849084905b8381101561089d578181015183820152602001610885565b50505050905090810190601f1680156108ca5780820380516001836020036101000a031916815260200191505b5094505050505060405180910390a1600080306001600160a01b0316888a6040516020018083805190602001908083835b6020831061091a5780518252601f1990920191602091820191016108fb565b6001836020036101000a038019825116818451168082178552505050505050905001826001600160a01b031660601b8152601401925050506040516020818303038152906040526040518082805190602001908083835b602083106109905780518252601f199092019160209182019101610971565b6001836020036101000a0380198251168184511680821785525050505050509050019150506000604051808303816000865af19150503d80600081146109f2576040519150601f19603f3d011682016040523d82523d6000602084013e6109f7565b606091505b509150915081610a385760405162461bcd60e51b81526004018080602001828103825260278152602001806129416027913960400191505060405180910390fd5b98975050505050505050565b610a4c611481565b6001600160a01b0316610a5d610e56565b6001600160a01b031614610aa6576040805162461bcd60e51b81526020600482018190526024820152600080516020612968833981519152604482015290519081900360640190fd5b620f42408110610ae75760405162461bcd60e51b815260040180806020018281038252602d8152602001806128f3602d913960400191505060405180910390fd5b60038190556040805182815290517ffa406a120a9e7f2b332bfb7a43d3bf1c3f079262202907a6b69c94b2821a02c69181900360200190a150565b610b2a611481565b6001600160a01b0316610b3b610e56565b6001600160a01b031614610b84576040805162461bcd60e51b81526020600482018190526024820152600080516020612968833981519152604482015290519081900360640190fd5b610b8d816114dd565b600580546001600160a01b0319166001600160a01b0383811691909117918290556040519116907f6e65d1b616d558dd96db7a58e31a954d28d47d57d568e7d7fc7819803878928f90600090a250565b610be5610d4d565b15610c2a576040805162461bcd60e51b815260206004820152601060248201526f14185d5cd8589b194e881c185d5cd95960821b604482015290519081900360640190fd5b610c3482826115e5565b505050565b6380ac58cd60e01b81565b6001600160a01b031660009081526007602052604090205490565b465b90565b7f8f9f4b63fb27ea36c52c6e650320201c8f2c6d7c1dfa95f40f5d5da52392016881565b6001546001600160a01b031681565b610c9f610d4d565b15610ce4576040805162461bcd60e51b815260206004820152601060248201526f14185d5cd8589b194e881c185d5cd95960821b604482015290519081900360640190fd5b600554600090610cfd906001600160a01b0316836115e5565b905080602001516001600160a01b0316827f88bd2ba46f3dc2567144331c35bd4c5ced3d547d8828638a152ddd9591c137a683600001516040518082815260200191505060405180910390a35050565b600054600160a01b900460ff1690565b610d65610d4d565b15610daa576040805162461bcd60e51b815260206004820152601060248201526f14185d5cd8589b194e881c185d5cd95960821b604482015290519081900360640190fd5b610db6848484846117d6565b50505050565b610dc4611481565b6001600160a01b0316610dd5610e56565b6001600160a01b031614610e1e576040805162461bcd60e51b81526020600482018190526024820152600080516020612968833981519152604482015290519081900360640190fd5b600080546040516001600160a01b0390911690600080516020612988833981519152908390a3600080546001600160a01b0319169055565b6000546001600160a01b031690565b610e6d610d4d565b15610eb2576040805162461bcd60e51b815260206004820152601060248201526f14185d5cd8589b194e881c185d5cd95960821b604482015290519081900360640190fd5b610ebe84848484611d36565b5050505050565b60035481565b610ed3610d4d565b15610f18576040805162461bcd60e51b815260206004820152601060248201526f14185d5cd8589b194e881c185d5cd95960821b604482015290519081900360640190fd5b600554610f30906001600160a01b03168484846117d6565b6005546001600160a01b039081166000908152600260208181526040808420888552825292839020835160a081018552815480825260018301548716828501819052948301549096168186015260038201546060808301829052600490930154608083018190528651978852938701528585019290925292519093919287927f9493ae82b9872af74473effb9d302efba34e0df360a99cc5e577cd3f28e3cab2929081900390910190a350505050565b60045481565b610fee610d4d565b15611033576040805162461bcd60e51b815260206004820152601060248201526f14185d5cd8589b194e881c185d5cd95960821b604482015290519081900360640190fd5b610db683838360405180602001604052806000815250611d36565b611056611481565b6001600160a01b0316611067610e56565b6001600160a01b0316146110b0576040805162461bcd60e51b81526020600482018190526024820152600080516020612968833981519152604482015290519081900360640190fd5b60048190556040805182815290517fe7fa8737293f41b5dfa0d5c3e552860a06275bed7015581b083c7be7003308ba9181900360200190a150565b6005546001600160a01b031681565b6005546001600160a01b03908116600090815260026020818152604080842095845294815291849020845160a081018652815480825260018301548616948201859052928201549094169484019490945260038401546060840181905260049094015460809093018390529390929190565b600260208181526000938452604080852090915291835291208054600182015492820154600383015460049093015491936001600160a01b039081169391169185565b6111b7610d4d565b156111fc576040805162461bcd60e51b815260206004820152601060248201526f14185d5cd8589b194e881c185d5cd95960821b604482015290519081900360640190fd5b600061122e600560009054906101000a90046001600160a01b0316848460405180602001604052806000815250611d36565b9050611238611481565b6001600160a01b031681602001516001600160a01b0316847fedcc7e1c269bc295dc24e74dc46b129c8449e6b0544af73b57c4201b78d119db846000015186604051808381526020018281526020019250505060405180910390a4505050565b6112a0611481565b6001600160a01b03166112b1610e56565b6001600160a01b0316146112fa576040805162461bcd60e51b81526020600482018190526024820152600080516020612968833981519152604482015290519081900360640190fd5b6001600160a01b03811661133f5760405162461bcd60e51b81526004018080602001828103825260268152602001806127926026913960400191505060405180910390fd5b600080546040516001600160a01b038085169392169160008051602061298883398151915291a3600080546001600160a01b0319166001600160a01b0392909216919091179055565b60065481565b3b151590565b60006001600160a01b0386166113ee576040805162461bcd60e51b815260206004820152601a6024820152792726aa11bb32b934b33c9d1024a72b20a624a22fa9a4a3a722a960311b604482015290519081900360640190fd5b60016114016113fc876124b3565b612536565b83868660405160008152602001604052604051808581526020018460ff1681526020018381526020018281526020019450505050506020604051602081039080840390855afa158015611458573d6000803e3d6000fd5b505050602060405103516001600160a01b0316866001600160a01b031614905095945050505050565b6000333014156114d857600080368080601f0160208091040260200160405190810160405280939291908181526020018383808284376000920191909152505050503601516001600160a01b03169150610c619050565b503390565b6114ef816001600160a01b031661138e565b61152a5760405162461bcd60e51b81526004018080602001828103825260248152602001806129a86024913960400191505060405180910390fd5b604080516301ffc9a760e01b81526380ac58cd60e01b6004820152905182916001600160a01b038316916301ffc9a791602480820192602092909190829003018186803b15801561157a57600080fd5b505afa15801561158e573d6000803e3d6000fd5b505050506040513d60208110156115a457600080fd5b50516115e15760405162461bcd60e51b815260040180806020018281038252603581526020018061282d6035913960400191505060405180910390fd5b5050565b6115ed6126ed565b60006115f7611481565b6001600160a01b038086166000908152600260208181526040808420898552825292839020835160a081018552815480825260018301548716938201939093529281015490941692820192909252600383015460608201526004909201546080830152919250906116a5576040805162461bcd60e51b8152602060048201526013602482015272105cdcd95d081b9bdd081c1d589b1a5cda1959606a1b604482015290519081900360640190fd5b816001600160a01b031681602001516001600160a01b031614806116e157506116cc610e56565b6001600160a01b0316826001600160a01b0316145b611726576040805162461bcd60e51b81526020600482015260116024820152702ab730baba3437b934bd32b2103ab9b2b960791b604482015290519081900360640190fd5b80516020808301516040808501516001600160a01b03808b16600090815260028087528482208c835287528482208281556001810180546001600160a01b031990811690915591810180549092169091556003810182905560040155825186815281831695810195909552825193949193908516928a927f0325426328de5b91ae4ad8462ad4076de4bcaf4551e81556185cacde5a425c6b929081900390910190a3509193505050505b92915050565b6117df846114dd565b60006117e9611481565b905060008590506000816001600160a01b0316636352211e876040518263ffffffff1660e01b81526004018082815260200191505060206040518083038186803b15801561183657600080fd5b505afa15801561184a573d6000803e3d6000fd5b505050506040513d602081101561186057600080fd5b505190506001600160a01b03838116908216146118c4576040805162461bcd60e51b815260206004820181905260248201527f4f6e6c7920746865206f776e65722063616e20637265617465206f7264657273604482015290519081900360640190fd5b306001600160a01b0316826001600160a01b031663081812fc886040518263ffffffff1660e01b81526004018082815260200191505060206040518083038186803b15801561191257600080fd5b505afa158015611926573d6000803e3d6000fd5b505050506040513d602081101561193c57600080fd5b50516001600160a01b031614806119cb57506040805163e985e9c560e01b81526001600160a01b03838116600483015230602483015291519184169163e985e9c591604480820192602092909190829003018186803b15801561199e57600080fd5b505afa1580156119b2573d6000803e3d6000fd5b505050506040513d60208110156119c857600080fd5b50515b611a065760405162461bcd60e51b815260040180806020018281038252603281526020018061289f6032913960400191505060405180910390fd5b60008511611a5b576040805162461bcd60e51b815260206004820152601d60248201527f50726963652073686f756c6420626520626967676572207468616e2030000000604482015290519081900360640190fd5b611a6642603c612574565b8411611aa35760405162461bcd60e51b81526004018080602001828103825260368152602001806127b86036913960400191505060405180910390fd5b60004282888a8960405160200180868152602001856001600160a01b031660601b8152601401848152602001836001600160a01b031660601b8152601401828152602001955050505050506040516020818303038152906040528051906020012090506040518060a00160405280828152602001836001600160a01b03168152602001896001600160a01b0316815260200187815260200186815250600260008a6001600160a01b03166001600160a01b0316815260200190815260200160002060008981526020019081526020016000206000820151816000015560208201518160010160006101000a8154816001600160a01b0302191690836001600160a01b0316021790555060408201518160020160006101000a8154816001600160a01b0302191690836001600160a01b03160217905550606082015181600301556080820151816004015590505060006004541115611cd5576001546001600160a01b03166323b872dd85611c15610e56565b6004546040518463ffffffff1660e01b815260040180846001600160a01b03168152602001836001600160a01b031681526020018281526020019350505050602060405180830381600087803b158015611c6e57600080fd5b505af1158015611c82573d6000803e3d6000fd5b505050506040513d6020811015611c9857600080fd5b5051611cd55760405162461bcd60e51b815260040180806020018281038252603f8152602001806127ee603f913960400191505060405180910390fd5b604080518281526001600160a01b038a811660208301528183018990526060820188905291519184169189917f84c66c3f7ba4b390e20e8e8233e2a516f3ce34a72749e4f12bd010dfba238039919081900360800190a35050505050505050565b611d3e6126ed565b611d47856114dd565b6000611d51611481565b604080516301ffc9a760e01b8152638f9f4b6360e01b6004820152905191925087916001600160a01b038316916301ffc9a7916024808301926020929190829003018186803b158015611da357600080fd5b505afa158015611db7573d6000803e3d6000fd5b505050506040513d6020811015611dcd57600080fd5b505115611eea5760408051638f9f4b6360e01b815260048101888152602482019283528651604483015286516001600160a01b03851693638f9f4b63938b938a9390929160640190602085019080838360005b83811015611e38578181015183820152602001611e20565b50505050905090810190601f168015611e655780820380516001836020036101000a031916815260200191505b50935050505060206040518083038186803b158015611e8357600080fd5b505afa158015611e97573d6000803e3d6000fd5b505050506040513d6020811015611ead57600080fd5b5051611eea5760405162461bcd60e51b81526004018080602001828103825260228152602001806128d16022913960400191505060405180910390fd5b6001600160a01b0380881660009081526002602081815260408084208b8552825292839020835160a081018552815480825260018301548716938201939093529281015490941692820192909252600383015460608201526004909201546080830152611f94576040805162461bcd60e51b8152602060048201526013602482015272105cdcd95d081b9bdd081c1d589b1a5cda1959606a1b604482015290519081900360640190fd5b60208101516001600160a01b038116611fe6576040805162461bcd60e51b815260206004820152600f60248201526e496e76616c6964206164647265737360881b604482015290519081900360640190fd5b836001600160a01b0316816001600160a01b03161415612041576040805162461bcd60e51b81526020600482015260116024820152702ab730baba3437b934bd32b2103ab9b2b960791b604482015290519081900360640190fd5b86826060015114612094576040805162461bcd60e51b8152602060048201526018602482015277151a19481c1c9a58d9481a5cc81b9bdd0818dbdc9c9958dd60421b604482015290519081900360640190fd5b816080015142106120e0576040805162461bcd60e51b8152602060048201526011602482015270151a19481bdc99195c88195e1c1a5c9959607a1b604482015290519081900360640190fd5b826001600160a01b0316636352211e896040518263ffffffff1660e01b81526004018082815260200191505060206040518083038186803b15801561212457600080fd5b505afa158015612138573d6000803e3d6000fd5b505050506040513d602081101561214e57600080fd5b50516001600160a01b038281169116146121995760405162461bcd60e51b81526004018080602001828103825260218152602001806129fc6021913960400191505060405180910390fd5b81516001600160a01b038a1660009081526002602081815260408084208d855290915282208281556001810180546001600160a01b031990811690915591810180549092169091556003808201839055600490910182905554909190156122f75761221c620f42406122166003548c6125d390919063ffffffff16565b9061262c565b6001549092506001600160a01b03166323b872dd87612239610e56565b856040518463ffffffff1660e01b815260040180846001600160a01b03168152602001836001600160a01b031681526020018281526020019350505050602060405180830381600087803b15801561229057600080fd5b505af11580156122a4573d6000803e3d6000fd5b505050506040513d60208110156122ba57600080fd5b50516122f75760405162461bcd60e51b815260040180806020018281038252603381526020018061271c6033913960400191505060405180910390fd5b6001546001600160a01b03166323b872dd87856123148d87612690565b6040518463ffffffff1660e01b815260040180846001600160a01b03168152602001836001600160a01b031681526020018281526020019350505050602060405180830381600087803b15801561236a57600080fd5b505af115801561237e573d6000803e3d6000fd5b505050506040513d602081101561239457600080fd5b50516123d15760405162461bcd60e51b81526004018080602001828103825260308152602001806129cc6030913960400191505060405180910390fd5b846001600160a01b03166342842e0e84888d6040518463ffffffff1660e01b815260040180846001600160a01b03168152602001836001600160a01b031681526020018281526020019350505050600060405180830381600087803b15801561243957600080fd5b505af115801561244d573d6000803e3d6000fd5b5050604080518481526001600160a01b038f811660208301528183018e90529151828b16945091871692508d917f695ec315e8a642a74d450a4505eeea53df699b47a7378c7d752e97d5b16eb9bb9181900360600190a450919998505050505050505050565b600060405180608001604052806043815260200161274f60439139805190602001208260000151836020015184604001518051906020012060405160200180858152602001848152602001836001600160a01b03168152602001828152602001945050505050604051602081830303815290604052805190602001209050919050565b6006546040805161190160f01b6020808301919091526022820193909352604280820194909452815180820390940184526062019052815191012090565b6000828201838110156125cc576040805162461bcd60e51b815260206004820152601b60248201527a536166654d6174683a206164646974696f6e206f766572666c6f7760281b604482015290519081900360640190fd5b9392505050565b6000826125e2575060006117d0565b828202828482816125ef57fe5b04146125cc5760405162461bcd60e51b81526004018080602001828103825260218152602001806129206021913960400191505060405180910390fd5b600080821161267f576040805162461bcd60e51b815260206004820152601a602482015279536166654d6174683a206469766973696f6e206279207a65726f60301b604482015290519081900360640190fd5b81838161268857fe5b049392505050565b6000828211156126e7576040805162461bcd60e51b815260206004820152601e60248201527f536166654d6174683a207375627472616374696f6e206f766572666c6f770000604482015290519081900360640190fd5b50900390565b6040805160a0810182526000808252602082018190529181018290526060810182905260808101919091529056fe5472616e73666572696e67207468652063757420746f20746865204d61726b6574706c616365206f776e6572206661696c65644d6574615472616e73616374696f6e2875696e74323536206e6f6e63652c616464726573732066726f6d2c62797465732066756e6374696f6e5369676e6174757265294f776e61626c653a206e6577206f776e657220697320746865207a65726f20616464726573735075626c69636174696f6e2073686f756c64206265206d6f7265207468616e2031206d696e75746520696e20746865206675747572655472616e73666572696e6720746865207075626c69636174696f6e2066656520746f20746865204d61726b6574706c616365206f776e6572206661696c6564546865204e465420636f6e74726163742068617320616e20696e76616c69642045524337323120696d706c656d656e746174696f6e4e4d5423657865637574654d6574615472616e73616374696f6e3a205349474e45525f414e445f5349474e41545552455f444f5f4e4f545f4d4154434854686520636f6e7472616374206973206e6f7420617574686f72697a656420746f206d616e616765207468652061737365745468652061737365742066696e6765727072696e74206973206e6f742076616c6964546865206f776e6572206375742073686f756c64206265206265747765656e203020616e64203939392c393939536166654d6174683a206d756c7469706c69636174696f6e206f766572666c6f774e4d5423657865637574654d6574615472616e73616374696f6e3a2043414c4c5f4641494c45444f776e61626c653a2063616c6c6572206973206e6f7420746865206f776e65728be0079c531659141344cd1fd0a4f28419497f9722a3daafe3b4186f6b6457e0546865204e465420416464726573732073686f756c64206265206120636f6e74726163745472616e73666572696e67207468652073616c6520616d6f756e7420746f207468652073656c6c6572206661696c65645468652073656c6c6572206973206e6f206c6f6e67657220746865206f776e6572a264697066735822122064e40f256d8f7ed3abd9efefc7248c60ee49dc019a97909949b45e86dd24007564736f6c6343000706003354686520616363657074656420746f6b656e2061646472657373206d7573742062652061206465706c6f79656420636f6e74726163744f776e61626c653a206e6577206f776e657220697320746865207a65726f2061646472657373454950373132446f6d61696e28737472696e67206e616d652c737472696e672076657273696f6e2c6164647265737320766572696679696e67436f6e74726163742c627974657333322073616c7429546865204e465420636f6e74726163742068617320616e20696e76616c69642045524337323120696d706c656d656e746174696f6e8be0079c531659141344cd1fd0a4f28419497f9722a3daafe3b4186f6b6457e0546865204e465420416464726573732073686f756c64206265206120636f6e7472616374",
  "linkReferences": {},
  "deployedLinkReferences": {}
}