{
  "_format": "hh-sol-artifact-1",
  "contractName": "VerifiableERC721Test",
  "sourceName": "contracts/mocks/VerifiableERC721Test.sol",
  "abi": [
    {
      "inputs": [
        {
          "internalType": "string",
          "name": "name",
          "type": "string"
        },
        {
          "internalType": "string",
          "name": "symbol",
          "type": "string"
        }
      ],
      "stateMutability": "nonpayable",
      "type": "constructor"
    },
    {
      "anonymous": false,
      "inputs": [
        {
          "indexed": true,
          "internalType": "address",
          "name": "owner",
          "type": "address"
        },
        {
          "indexed": true,
          "internalType": "address",
          "name": "approved",
          "type": "address"
        },
        {
          "indexed": true,
          "internalType": "uint256",
          "name": "tokenId",
          "type": "uint256"
        }
      ],
      "name": "Approval",
      "type": "event"
    },
    {
      "anonymous": false,
      "inputs": [
        {
          "indexed": true,
          "internalType": "address",
          "name": "owner",
          "type": "address"
        },
        {
          "indexed": true,
          "internalType": "address",
          "name": "operator",
          "type": "address"
        },
        {
          "indexed": false,
          "internalType": "bool",
          "name": "approved",
          "type": "bool"
        }
      ],
      "name": "ApprovalForAll",
      "type": "event"
    },
    {
      "anonymous": false,
      "inputs": [
        {
          "indexed": true,
          "internalType": "address",
          "name": "from",
          "type": "address"
        },
        {
          "indexed": true,
          "internalType": "address",
          "name": "to",
          "type": "address"
        },
        {
          "indexed": true,
          "internalType": "uint256",
          "name": "tokenId",
          "type": "uint256"
        }
      ],
      "name": "Transfer",
      "type": "event"
    },
    {
      "inputs": [
        {
          "internalType": "address",
          "name": "to",
          "type": "address"
        },
        {
          "internalType": "uint256",
          "name": "tokenId",
          "type": "uint256"
        }
      ],
      "name": "approve",
      "outputs": [],
      "stateMutability": "nonpayable",
      "type": "function"
    },
    {
      "inputs": [
        {
          "internalType": "address",
          "name": "owner",
          "type": "address"
        }
      ],
      "name": "balanceOf",
      "outputs": [
        {
          "internalType": "uint256",
          "name": "",
          "type": "uint256"
        }
      ],
      "stateMutability": "view",
      "type": "function"
    },
    {
      "inputs": [],
      "name": "baseURI",
      "outputs": [
        {
          "internalType": "string",
          "name": "",
          "type": "string"
        }
      ],
      "stateMutability": "view",
      "type": "function"
    },
    {
      "inputs": [
        {
          "internalType": "uint256",
          "name": "_tokenId",
          "type": "uint256"
        }
      ],
      "name": "burn",
      "outputs": [],
      "stateMutability": "nonpayable",
      "type": "function"
    },
    {
      "inputs": [
        {
          "internalType": "uint256",
          "name": "tokenId",
          "type": "uint256"
        }
      ],
      "name": "getApproved",
      "outputs": [
        {
          "internalType": "address",
          "name": "",
          "type": "address"
        }
      ],
      "stateMutability": "view",
      "type": "function"
    },
    {
      "inputs": [
        {
          "internalType": "uint256",
          "name": "assetId",
          "type": "uint256"
        }
      ],
      "name": "getFingerprint",
      "outputs": [
        {
          "internalType": "bytes32",
          "name": "",
          "type": "bytes32"
        }
      ],
      "stateMutability": "pure",
      "type": "function"
    },
    {
      "inputs": [
        {
          "internalType": "address",
          "name": "owner",
          "type": "address"
        },
        {
          "internalType": "address",
          "name": "operator",
          "type": "address"
        }
      ],
      "name": "isApprovedForAll",
      "outputs": [
        {
          "internalType": "bool",
          "name": "",
          "type": "bool"
        }
      ],
      "stateMutability": "view",
      "type": "function"
    },
    {
      "inputs": [
        {
          "internalType": "address",
          "name": "_to",
          "type": "address"
        },
        {
          "internalType": "uint256",
          "name": "_tokenId",
          "type": "uint256"
        }
      ],
      "name": "mint",
      "outputs": [],
      "stateMutability": "nonpayable",
      "type": "function"
    },
    {
      "inputs": [],
      "name": "name",
      "outputs": [
        {
          "internalType": "string",
          "name": "",
          "type": "string"
        }
      ],
      "stateMutability": "view",
      "type": "function"
    },
    {
      "inputs": [
        {
          "internalType": "uint256",
          "name": "tokenId",
          "type": "uint256"
        }
      ],
      "name": "ownerOf",
      "outputs": [
        {
          "internalType": "address",
          "name": "",
          "type": "address"
        }
      ],
      "stateMutability": "view",
      "type": "function"
    },
    {
      "inputs": [
        {
          "internalType": "address",
          "name": "from",
          "type": "address"
        },
        {
          "internalType": "address",
          "name": "to",
          "type": "address"
        },
        {
          "internalType": "uint256",
          "name": "tokenId",
          "type": "uint256"
        }
      ],
      "name": "safeTransferFrom",
      "outputs": [],
      "stateMutability": "nonpayable",
      "type": "function"
    },
    {
      "inputs": [
        {
          "internalType": "address",
          "name": "from",
          "type": "address"
        },
        {
          "internalType": "address",
          "name": "to",
          "type": "address"
        },
        {
          "internalType": "uint256",
          "name": "tokenId",
          "type": "uint256"
        },
        {
          "internalType": "bytes",
          "name": "_data",
          "type": "bytes"
        }
      ],
      "name": "safeTransferFrom",
      "outputs": [],
      "stateMutability": "nonpayable",
      "type": "function"
    },
    {
      "inputs": [
        {
          "internalType": "address",
          "name": "operator",
          "type": "address"
        },
        {
          "internalType": "bool",
          "name": "approved",
          "type": "bool"
        }
      ],
      "name": "setApprovalForAll",
      "outputs": [],
      "stateMutability": "nonpayable",
      "type": "function"
    },
    {
      "inputs": [
        {
          "internalType": "uint256",
          "name": "_tokenId",
          "type": "uint256"
        },
        {
          "internalType": "string",
          "name": "_uri",
          "type": "string"
        }
      ],
      "name": "setTokenURI",
      "outputs": [],
      "stateMutability": "nonpayable",
      "type": "function"
    },
    {
      "inputs": [
        {
          "internalType": "bytes4",
          "name": "_interfaceId",
          "type": "bytes4"
        }
      ],
      "name": "supportsInterface",
      "outputs": [
        {
          "internalType": "bool",
          "name": "",
          "type": "bool"
        }
      ],
      "stateMutability": "view",
      "type": "function"
    },
    {
      "inputs": [],
      "name": "symbol",
      "outputs": [
        {
          "internalType": "string",
          "name": "",
          "type": "string"
        }
      ],
      "stateMutability": "view",
      "type": "function"
    },
    {
      "inputs": [
        {
          "internalType": "uint256",
          "name": "index",
          "type": "uint256"
        }
      ],
      "name": "tokenByIndex",
      "outputs": [
        {
          "internalType": "uint256",
          "name": "",
          "type": "uint256"
        }
      ],
      "stateMutability": "view",
      "type": "function"
    },
    {
      "inputs": [
        {
          "internalType": "address",
          "name": "owner",
          "type": "address"
        },
        {
          "internalType": "uint256",
          "name": "index",
          "type": "uint256"
        }
      ],
      "name": "tokenOfOwnerByIndex",
      "outputs": [
        {
          "internalType": "uint256",
          "name": "",
          "type": "uint256"
        }
      ],
      "stateMutability": "view",
      "type": "function"
    },
    {
      "inputs": [
        {
          "internalType": "uint256",
          "name": "tokenId",
          "type": "uint256"
        }
      ],
      "name": "tokenURI",
      "outputs": [
        {
          "internalType": "string",
          "name": "",
          "type": "string"
        }
      ],
      "stateMutability": "view",
      "type": "function"
    },
    {
      "inputs": [],
      "name": "totalSupply",
      "outputs": [
        {
          "internalType": "uint256",
          "name": "",
          "type": "uint256"
        }
      ],
      "stateMutability": "view",
      "type": "function"
    },
    {
      "inputs": [
        {
          "internalType": "address",
          "name": "from",
          "type": "address"
        },
        {
          "internalType": "address",
          "name": "to",
          "type": "address"
        },
        {
          "internalType": "uint256",
          "name": "tokenId",
          "type": "uint256"
        }
      ],
      "name": "transferFrom",
      "outputs": [],
      "stateMutability": "nonpayable",
      "type": "function"
    },
    {
      "inputs": [
        {
          "internalType": "uint256",
          "name": "assetId",
          "type": "uint256"
        },
        {
          "internalType": "bytes",
          "name": "fingerprint",
          "type": "bytes"
        }
      ],
      "name": "verifyFingerprint",
      "outputs": [
        {
          "internalType": "bool",
          "name": "",
          "type": "bool"
        }
      ],
      "stateMutability": "pure",
      "type": "function"
    }
  ],
  "bytecode": "0x60806040523480156200001157600080fd5b506040516200239b3803806200239b833981810160405260408110156200003757600080fd5b81019080805160405193929190846401000000008211156200005857600080fd5b9083019060208201858111156200006e57600080fd5b82516401000000008111828201881017156200008957600080fd5b82525081516020918201929091019080838360005b83811015620000b85781810151838201526020016200009e565b50505050905090810190601f168015620000e65780820380516001836020036101000a031916815260200191505b50604052602001805160405193929190846401000000008211156200010a57600080fd5b9083019060208201858111156200012057600080fd5b82516401000000008111828201881017156200013b57600080fd5b82525081516020918201929091019080838360005b838110156200016a57818101518382015260200162000150565b50505050905090810190601f168015620001985780820380516001836020036101000a031916815260200191505b50604052508391508290508181620001b76301ffc9a760e01b62000225565b8151620001cc906006906020850190620002aa565b508051620001e2906007906020840190620002aa565b50620001f56380ac58cd60e01b62000225565b62000207635b5e139f60e01b62000225565b6200021963780e9d6360e01b62000225565b50505050505062000356565b6001600160e01b0319808216141562000285576040805162461bcd60e51b815260206004820152601c60248201527f4552433136353a20696e76616c696420696e7465726661636520696400000000604482015290519081900360640190fd5b6001600160e01b0319166000908152602081905260409020805460ff19166001179055565b828054600181600116156101000203166002900490600052602060002090601f016020900481019282620002e257600085556200032d565b82601f10620002fd57805160ff19168380011785556200032d565b828001600101855582156200032d579182015b828111156200032d57825182559160200191906001019062000310565b506200033b9291506200033f565b5090565b5b808211156200033b576000815560010162000340565b61203580620003666000396000f3fe608060405234801561001057600080fd5b50600436106101125760003560e01c806301ffc9a71461011757806306fdde0314610152578063081812fc146101cf578063095ea7b314610208578063159a647514610236578063162094c41461026557806318160ddd1461031057806323b872dd146103185780632f745c591461034e57806340c10f191461037a57806342842e0e146103a657806342966c68146103dc5780634f6ccce7146103f95780636352211e146104165780636c0360eb1461043357806370a082311461043b5780638f9f4b631461046157806395d89b411461050c578063a22cb46514610514578063b88d4fde14610542578063c87b56dd14610606578063e985e9c514610623575b600080fd5b61013e6004803603602081101561012d57600080fd5b50356001600160e01b031916610651565b604080519115158252519081900360200190f35b61015a61067f565b6040805160208082528351818301528351919283929083019185019080838360005b8381101561019457818101518382015260200161017c565b50505050905090810190601f1680156101c15780820380516001836020036101000a031916815260200191505b509250505060405180910390f35b6101ec600480360360208110156101e557600080fd5b5035610715565b604080516001600160a01b039092168252519081900360200190f35b6102346004803603604081101561021e57600080fd5b506001600160a01b038135169060200135610777565b005b6102536004803603602081101561024c57600080fd5b5035610852565b60408051918252519081900360200190f35b6102346004803603604081101561027b57600080fd5b81359190810190604081016020820135600160201b81111561029c57600080fd5b8201836020820111156102ae57600080fd5b803590602001918460018302840111600160201b831117156102cf57600080fd5b91908080601f016020809104026020016040519081016040528093929190818152602001838380828437600092019190915250929550610859945050505050565b610253610867565b6102346004803603606081101561032e57600080fd5b506001600160a01b03813581169160208101359091169060400135610878565b6102536004803603604081101561036457600080fd5b506001600160a01b0381351690602001356108cf565b6102346004803603604081101561039057600080fd5b506001600160a01b0381351690602001356108fa565b610234600480360360608110156103bc57600080fd5b506001600160a01b03813581169160208101359091169060400135610904565b610234600480360360208110156103f257600080fd5b503561091f565b6102536004803603602081101561040f57600080fd5b503561092b565b6101ec6004803603602081101561042c57600080fd5b5035610941565b61015a610969565b6102536004803603602081101561045157600080fd5b50356001600160a01b03166109ca565b61013e6004803603604081101561047757600080fd5b81359190810190604081016020820135600160201b81111561049857600080fd5b8201836020820111156104aa57600080fd5b803590602001918460018302840111600160201b831117156104cb57600080fd5b91908080601f016020809104026020016040519081016040528093929190818152602001838380828437600092019190915250929550610a32945050505050565b61015a610a4e565b6102346004803603604081101561052a57600080fd5b506001600160a01b0381351690602001351515610aaf565b6102346004803603608081101561055857600080fd5b6001600160a01b03823581169260208101359091169160408201359190810190608081016060820135600160201b81111561059257600080fd5b8201836020820111156105a457600080fd5b803590602001918460018302840111600160201b831117156105c557600080fd5b91908080601f016020809104026020016040519081016040528093929190818152602001838380828437600092019190915250929550610bb0945050505050565b61015a6004803603602081101561061c57600080fd5b5035610c0e565b61013e6004803603604081101561063957600080fd5b506001600160a01b0381358116916020013516610e8f565b600061065c82610ebd565b8061067757506001600160e01b03198216638f9f4b6360e01b145b90505b919050565b60068054604080516020601f600260001961010060018816150201909516949094049384018190048102820181019092528281526060939092909183018282801561070b5780601f106106e05761010080835404028352916020019161070b565b820191906000526020600020905b8154815290600101906020018083116106ee57829003601f168201915b5050505050905090565b600061072082610edc565b61075b5760405162461bcd60e51b815260040180806020018281038252602c815260200180611ede602c913960400191505060405180910390fd5b506000908152600460205260409020546001600160a01b031690565b600061078282610941565b9050806001600160a01b0316836001600160a01b031614156107d55760405162461bcd60e51b8152600401808060200182810382526021815260200180611fae6021913960400191505060405180910390fd5b806001600160a01b03166107e7610ee9565b6001600160a01b03161480610808575061080881610803610ee9565b610e8f565b6108435760405162461bcd60e51b8152600401808060200182810382526038815260200180611e316038913960400191505060405180910390fd5b61084d8383610eed565b505050565b5061123490565b6108638282610f5b565b5050565b60006108736002610fbe565b905090565b610889610883610ee9565b82610fc9565b6108c45760405162461bcd60e51b8152600401808060200182810382526031815260200180611fcf6031913960400191505060405180910390fd5b61084d83838361106d565b6001600160a01b03821660009081526001602052604081206108f190836111a7565b90505b92915050565b61086382826111b3565b61084d83838360405180602001604052806000815250610bb0565b610928816112ce565b50565b600080610939600284611389565b509392505050565b600061067782604051806060016040528060298152602001611e9360299139600291906113a5565b60098054604080516020601f600260001961010060018816150201909516949094049384018190048102820181019092528281526060939092909183018282801561070b5780601f106106e05761010080835404028352916020019161070b565b60006001600160a01b038216610a115760405162461bcd60e51b815260040180806020018281038252602a815260200180611e69602a913960400191505060405180910390fd5b6001600160a01b038216600090815260016020526040902061067790610fbe565b6000610a3d826113bc565b610a4684610852565b149392505050565b60078054604080516020601f600260001961010060018816150201909516949094049384018190048102820181019092528281526060939092909183018282801561070b5780601f106106e05761010080835404028352916020019161070b565b610ab7610ee9565b6001600160a01b0316826001600160a01b03161415610b19576040805162461bcd60e51b815260206004820152601960248201527822a9219b99189d1030b8383937bb32903a379031b0b63632b960391b604482015290519081900360640190fd5b8060056000610b26610ee9565b6001600160a01b03908116825260208083019390935260409182016000908120918716808252919093529120805460ff191692151592909217909155610b6a610ee9565b6001600160a01b03167f17307eab39ab6107e8899845ad3d59bd9653f200f220920489ca2b5937696c318360405180821515815260200191505060405180910390a35050565b610bc1610bbb610ee9565b83610fc9565b610bfc5760405162461bcd60e51b8152600401808060200182810382526031815260200180611fcf6031913960400191505060405180910390fd5b610c0884848484611400565b50505050565b6060610c1982610edc565b610c545760405162461bcd60e51b815260040180806020018281038252602f815260200180611f5f602f913960400191505060405180910390fd5b60008281526008602090815260408083208054825160026001831615610100026000190190921691909104601f810185900485028201850190935282815292909190830182828015610ce75780601f10610cbc57610100808354040283529160200191610ce7565b820191906000526020600020905b815481529060010190602001808311610cca57829003601f168201915b505050505090506000610cf8610969565b9050805160001415610d0c5750905061067a565b815115610dcd5780826040516020018083805190602001908083835b60208310610d475780518252601f199092019160209182019101610d28565b51815160209384036101000a600019018019909216911617905285519190930192850191508083835b60208310610d8f5780518252601f199092019160209182019101610d70565b6001836020036101000a038019825116818451168082178552505050505050905001925050506040516020818303038152906040529250505061067a565b80610dd785611452565b6040516020018083805190602001908083835b60208310610e095780518252601f199092019160209182019101610dea565b51815160209384036101000a600019018019909216911617905285519190930192850191508083835b60208310610e515780518252601f199092019160209182019101610e32565b6001836020036101000a0380198251168184511680821785525050505050509050019250505060405160208183030381529060405292505050919050565b6001600160a01b03918216600090815260056020908152604080832093909416825291909152205460ff1690565b6001600160e01b03191660009081526020819052604090205460ff1690565b600061067760028361152c565b3390565b600081815260046020526040902080546001600160a01b0319166001600160a01b0384169081179091558190610f2282610941565b6001600160a01b03167f8c5be1e5ebec7d5bd14f71427d1e84f3dd0314c0f7b2291e5b200ac8c7c3b92560405160405180910390a45050565b610f6482610edc565b610f9f5760405162461bcd60e51b815260040180806020018281038252602c815260200180611f0a602c913960400191505060405180910390fd5b6000828152600860209081526040909120825161084d92840190611cab565b600061067782611538565b6000610fd482610edc565b61100f5760405162461bcd60e51b815260040180806020018281038252602c815260200180611e05602c913960400191505060405180910390fd5b600061101a83610941565b9050806001600160a01b0316846001600160a01b031614806110555750836001600160a01b031661104a84610715565b6001600160a01b0316145b8061106557506110658185610e8f565b949350505050565b826001600160a01b031661108082610941565b6001600160a01b0316146110c55760405162461bcd60e51b8152600401808060200182810382526029815260200180611f366029913960400191505060405180910390fd5b6001600160a01b03821661110a5760405162461bcd60e51b8152600401808060200182810382526024815260200180611de16024913960400191505060405180910390fd5b61111583838361084d565b611120600082610eed565b6001600160a01b0383166000908152600160205260409020611142908261153c565b506001600160a01b03821660009081526001602052604090206111659082611548565b5061117260028284611554565b5080826001600160a01b0316846001600160a01b0316600080516020611f8e83398151915260405160405180910390a4505050565b60006108f1838361156a565b6001600160a01b03821661120e576040805162461bcd60e51b815260206004820181905260248201527f4552433732313a206d696e7420746f20746865207a65726f2061646472657373604482015290519081900360640190fd5b61121781610edc565b15611268576040805162461bcd60e51b815260206004820152601c60248201527b115490cdcc8c4e881d1bdad95b88185b1c9958591e481b5a5b9d195960221b604482015290519081900360640190fd5b6112746000838361084d565b6001600160a01b03821660009081526001602052604090206112969082611548565b506112a360028284611554565b5060405181906001600160a01b03841690600090600080516020611f8e833981519152908290a45050565b60006112d982610941565b90506112e78160008461084d565b6112f2600083610eed565b600082815260086020526040902054600260001961010060018416150201909116041561133057600082815260086020526040812061133091611d37565b6001600160a01b0381166000908152600160205260409020611352908361153c565b5061135e6002836115ce565b5060405182906000906001600160a01b03841690600080516020611f8e833981519152908390a45050565b600080808061139886866115da565b9097909650945050505050565b60006113b2848484611655565b90505b9392505050565b60008060005b83518110156113f957806008028482815181106113db57fe5b01602001516001600160f81b031916901c91909117906001016113c2565b5092915050565b61140b84848461106d565b6114178484848461171f565b610c085760405162461bcd60e51b8152600401808060200182810382526032815260200180611daf6032913960400191505060405180910390fd5b60608161147757506040805180820190915260018152600360fc1b602082015261067a565b8160005b811561148f57600101600a8204915061147b565b6000816001600160401b03811180156114a757600080fd5b506040519080825280601f01601f1916602001820160405280156114d2576020820181803683370190505b50859350905060001982015b831561152357600a840660300160f81b8282806001900393508151811061150157fe5b60200101906001600160f81b031916908160001a905350600a840493506114de565b50949350505050565b60006108f18383611887565b5490565b60006108f1838361189f565b60006108f18383611965565b60006113b284846001600160a01b0385166119af565b815460009082106115ac5760405162461bcd60e51b8152600401808060200182810382526022815260200180611d8d6022913960400191505060405180910390fd5b8260000182815481106115bb57fe5b9060005260206000200154905092915050565b60006108f18383611a46565b81546000908190831061161e5760405162461bcd60e51b8152600401808060200182810382526022815260200180611ebc6022913960400191505060405180910390fd5b600084600001848154811061162f57fe5b906000526020600020906002020190508060000154816001015492509250509250929050565b600082815260018401602052604081205482816116f05760405162461bcd60e51b81526004018080602001828103825283818151815260200191508051906020019080838360005b838110156116b557818101518382015260200161169d565b50505050905090810190601f1680156116e25780820380516001836020036101000a031916815260200191505b509250505060405180910390fd5b5084600001600182038154811061170357fe5b9060005260206000209060020201600101549150509392505050565b6000611733846001600160a01b0316611b1a565b61173f57506001611065565b600061184d630a85bd0160e11b611754610ee9565b88878760405160240180856001600160a01b03168152602001846001600160a01b0316815260200183815260200180602001828103825283818151815260200191508051906020019080838360005b838110156117bb5781810151838201526020016117a3565b50505050905090810190601f1680156117e85780820380516001836020036101000a031916815260200191505b5095505050505050604051602081830303815290604052906001600160e01b0319166020820180516001600160e01b038381831617835250505050604051806060016040528060328152602001611daf603291396001600160a01b0388169190611b20565b9050600081806020019051602081101561186657600080fd5b50516001600160e01b031916630a85bd0160e11b1492505050949350505050565b60009081526001919091016020526040902054151590565b6000818152600183016020526040812054801561195b57835460001980830191908101906000908790839081106118d257fe5b90600052602060002001549050808760000184815481106118ef57fe5b60009182526020808320909101929092558281526001898101909252604090209084019055865487908061191f57fe5b600190038181906000526020600020016000905590558660010160008781526020019081526020016000206000905560019450505050506108f4565b60009150506108f4565b60006119718383611887565b6119a7575081546001818101845560008481526020808220909301849055845484825282860190935260409020919091556108f4565b5060006108f4565b600082815260018401602052604081205480611a145750506040805180820182528381526020808201848152865460018181018955600089815284812095516002909302909501918255915190820155865486845281880190925292909120556113b5565b82856000016001830381548110611a2757fe5b90600052602060002090600202016001018190555060009150506113b5565b6000818152600183016020526040812054801561195b5783546000198083019190810190600090879083908110611a7957fe5b9060005260206000209060020201905080876000018481548110611a9957fe5b600091825260208083208454600290930201918255600193840154918401919091558354825289830190526040902090840190558654879080611ad857fe5b60008281526020808220600260001990940193840201828155600190810183905592909355888152898201909252604082209190915594506108f49350505050565b3b151590565b60606113b2848460008585611b3485611b1a565b611b85576040805162461bcd60e51b815260206004820152601d60248201527f416464726573733a2063616c6c20746f206e6f6e2d636f6e7472616374000000604482015290519081900360640190fd5b600080866001600160a01b031685876040518082805190602001908083835b60208310611bc35780518252601f199092019160209182019101611ba4565b6001836020036101000a03801982511681845116808217855250505050505090500191505060006040518083038185875af1925050503d8060008114611c25576040519150601f19603f3d011682016040523d82523d6000602084013e611c2a565b606091505b5091509150611c3a828286611c45565b979650505050505050565b60608315611c545750816113b5565b825115611c645782518084602001fd5b60405162461bcd60e51b81526020600482018181528451602484015284518593919283926044019190850190808383600083156116b557818101518382015260200161169d565b828054600181600116156101000203166002900490600052602060002090601f016020900481019282611ce15760008555611d27565b82601f10611cfa57805160ff1916838001178555611d27565b82800160010185558215611d27579182015b82811115611d27578251825591602001919060010190611d0c565b50611d33929150611d77565b5090565b50805460018160011615610100020316600290046000825580601f10611d5d5750610928565b601f01602090049060005260206000209081019061092891905b5b80821115611d335760008155600101611d7856fe456e756d657261626c655365743a20696e646578206f7574206f6620626f756e64734552433732313a207472616e7366657220746f206e6f6e20455243373231526563656976657220696d706c656d656e7465724552433732313a207472616e7366657220746f20746865207a65726f20616464726573734552433732313a206f70657261746f7220717565727920666f72206e6f6e6578697374656e7420746f6b656e4552433732313a20617070726f76652063616c6c6572206973206e6f74206f776e6572206e6f7220617070726f76656420666f7220616c6c4552433732313a2062616c616e636520717565727920666f7220746865207a65726f20616464726573734552433732313a206f776e657220717565727920666f72206e6f6e6578697374656e7420746f6b656e456e756d657261626c654d61703a20696e646578206f7574206f6620626f756e64734552433732313a20617070726f76656420717565727920666f72206e6f6e6578697374656e7420746f6b656e4552433732314d657461646174613a2055524920736574206f66206e6f6e6578697374656e7420746f6b656e4552433732313a207472616e73666572206f6620746f6b656e2074686174206973206e6f74206f776e4552433732314d657461646174613a2055524920717565727920666f72206e6f6e6578697374656e7420746f6b656eddf252ad1be2c89b69c2b068fc378daa952ba7f163c4a11628f55a4df523b3ef4552433732313a20617070726f76616c20746f2063757272656e74206f776e65724552433732313a207472616e736665722063616c6c6572206973206e6f74206f776e6572206e6f7220617070726f766564a26469706673582212202fc86e850c02c923a48f7b2052748f3856608ca311c3dd0e14f45da3bb731c8364736f6c63430007060033",
  "linkReferences": {},
  "deployedLinkReferences": {}
}