{
  "_format": "hh-sol-artifact-1",
  "contractName": "NativeMetaTransaction",
  "sourceName": "contracts/commons/NativeMetaTransaction.sol",
  "abi": [
    {
      "anonymous": false,
      "inputs": [
        {
          "indexed": false,
          "internalType": "address",
          "name": "userAddress",
          "type": "address"
        },
        {
          "indexed": false,
          "internalType": "address",
          "name": "relayerAddress",
          "type": "address"
        },
        {
          "indexed": false,
          "internalType": "bytes",
          "name": "functionSignature",
          "type": "bytes"
        }
      ],
      "name": "MetaTransactionExecuted",
      "type": "event"
    },
    {
      "inputs": [],
      "name": "domainSeparator",
      "outputs": [
        {
          "internalType": "bytes32",
          "name": "",
          "type": "bytes32"
        }
      ],
      "stateMutability": "view",
      "type": "function"
    },
    {
      "inputs": [
        {
          "internalType": "address",
          "name": "userAddress",
          "type": "address"
        },
        {
          "internalType": "bytes",
          "name": "functionSignature",
          "type": "bytes"
        },
        {
          "internalType": "bytes32",
          "name": "sigR",
          "type": "bytes32"
        },
        {
          "internalType": "bytes32",
          "name": "sigS",
          "type": "bytes32"
        },
        {
          "internalType": "uint8",
          "name": "sigV",
          "type": "uint8"
        }
      ],
      "name": "executeMetaTransaction",
      "outputs": [
        {
          "internalType": "bytes",
          "name": "",
          "type": "bytes"
        }
      ],
      "stateMutability": "payable",
      "type": "function"
    },
    {
      "inputs": [],
      "name": "getChainId",
      "outputs": [
        {
          "internalType": "uint256",
          "name": "",
          "type": "uint256"
        }
      ],
      "stateMutability": "view",
      "type": "function"
    },
    {
      "inputs": [
        {
          "internalType": "address",
          "name": "user",
          "type": "address"
        }
      ],
      "name": "getNonce",
      "outputs": [
        {
          "internalType": "uint256",
          "name": "nonce",
          "type": "uint256"
        }
      ],
      "stateMutability": "view",
      "type": "function"
    }
  ],
  "bytecode": "0x608060405234801561001057600080fd5b5061074f806100206000396000f3fe60806040526004361061003f5760003560e01c80630c53c51c146100445780632d0335ab1461017b5780633408e470146101c0578063f698da25146101d5575b600080fd5b610106600480360360a081101561005a57600080fd5b6001600160a01b038235169190810190604081016020820135600160201b81111561008457600080fd5b82018360208201111561009657600080fd5b803590602001918460018302840111600160201b831117156100b757600080fd5b91908080601f016020809104026020016040519081016040528093929190818152602001838380828437600092019190915250929550508235935050506020810135906040013560ff166101ea565b6040805160208082528351818301528351919283929083019185019080838360005b83811015610140578181015183820152602001610128565b50505050905090810190601f16801561016d5780820380516001836020036101000a031916815260200191505b509250505060405180910390f35b34801561018757600080fd5b506101ae6004803603602081101561019e57600080fd5b50356001600160a01b031661049f565b60408051918252519081900360200190f35b3480156101cc57600080fd5b506101ae6104ba565b3480156101e157600080fd5b506101ae6104be565b60408051606081810183526001600160a01b0388166000818152600160209081529085902054845283015291810186905261022887828787876104c4565b6102635760405162461bcd60e51b815260040180806020018281038252603d8152602001806106b6603d913960400191505060405180910390fd5b6001600160a01b0387166000818152600160208181526040808420805490930190925581519384523384820181905260609285018381528b51938601939093528a517f5845892132946850460bff5a0083f71031bc5bf9aadcd40f1de79423eac9b10b958d9592948d949193909260808501928601918190849084905b838110156102f85781810151838201526020016102e0565b50505050905090810190601f1680156103255780820380516001836020036101000a031916815260200191505b5094505050505060405180910390a1600080306001600160a01b0316888a6040516020018083805190602001908083835b602083106103755780518252601f199092019160209182019101610356565b6001836020036101000a038019825116818451168082178552505050505050905001826001600160a01b031660601b8152601401925050506040516020818303038152906040526040518082805190602001908083835b602083106103eb5780518252601f1990920191602091820191016103cc565b6001836020036101000a0380198251168184511680821785525050505050509050019150506000604051808303816000865af19150503d806000811461044d576040519150601f19603f3d011682016040523d82523d6000602084013e610452565b606091505b5091509150816104935760405162461bcd60e51b81526004018080602001828103825260278152602001806106f36027913960400191505060405180910390fd5b98975050505050505050565b6001600160a01b031660009081526001602052604090205490565b4690565b60005481565b60006001600160a01b03861661051e576040805162461bcd60e51b815260206004820152601a6024820152792726aa11bb32b934b33c9d1024a72b20a624a22fa9a4a3a722a960311b604482015290519081900360640190fd5b600161053161052c876105b1565b610634565b83868660405160008152602001604052604051808581526020018460ff1681526020018381526020018281526020019450505050506020604051602081039080840390855afa158015610588573d6000803e3d6000fd5b505050602060405103516001600160a01b0316866001600160a01b031614905095945050505050565b600060405180608001604052806043815260200161067360439139805190602001208260000151836020015184604001518051906020012060405160200180858152602001848152602001836001600160a01b03168152602001828152602001945050505050604051602081830303815290604052805190602001209050919050565b6000546040805161190160f01b602080830191909152602282019390935260428082019490945281518082039094018452606201905281519101209056fe4d6574615472616e73616374696f6e2875696e74323536206e6f6e63652c616464726573732066726f6d2c62797465732066756e6374696f6e5369676e6174757265294e4d5423657865637574654d6574615472616e73616374696f6e3a205349474e45525f414e445f5349474e41545552455f444f5f4e4f545f4d415443484e4d5423657865637574654d6574615472616e73616374696f6e3a2043414c4c5f4641494c4544a2646970667358221220ec03886bfc5430a4885291cd29e01b498cef52ce6d7921fee969aad3910d8f5964736f6c63430007060033",
  "linkReferences": {},
  "deployedLinkReferences": {}
}